:1000000000800020C10100006104000061040000C4
:100010006104000061040000610400005F0400004E
:100020005F0400005F0400005F040000650400003E
:10003000650400005F040000650400006504000022
:10004000650400006504000065040000650400000C
:1000500065040000650400006504000065040000FC
:1000600065040000650400006504000065040000EC
:1000700065040000650400006504000065040000DC
:10008000650400005F0400006504000065040000D2
:100090006504000065040000650400005F040000C2
:1000A00065040000650400006504000065040000AC
:1000B0005F040000650400006504000065040000A2
:1000C000650400006504000065040000650400008C
:1000D000650400005F0400005F0400005F0400008E
:1000E0005F0400005F0400005F0400005F04000084
:1000F000650400006504000065040000650400005C
:100100006504000065040000650400005F04000051
:100110005F0400005F0400005F0400005F04000053
:100120005F04000065040000650400006504000031
:10013000650400006504000065040000650400001B
:10014000650400006504000065040000650400000B
:1001500065040000650400006504000065040000FB
:100160006504000065040000650400005F040000F1
:100170005F0400005F0400005F0400005F040000F3
:100180005F040000650400005F04000065040000D7
:1001900065040000650400005F04000065040000C1
:1001A00065040000650400006504000065040000AB
:1001B0005F0400005F040000650400005F040000AD
:1001C00008B500F051F92F4B2F499A78120742BF1A
:1001D0009A7842F008029A702C4B2A221A7041F247
:1001E00038028B5843F478538B50294B0A221A70EB
:1001F000A3F5805324225A70A0221A709A7990078E
:10020000FCD59A79D106FCD4224B19469A7902F092
:100210000C02082AFAD105221A7143225A718B79ED
:100220009A06FCD51B4A93795B06FCD5164B41F226
:1002300044014FF08170585041F248010520585058
:100240002021117013498A7902F00C020C2AFAD18C
:1002500041F2040210499950104A114B11498B4246
:1002600007D3114B114A0021934207D300F0E0F865
:10027000FEE752F8040F43F8040BF0E743F8041BC1
:10028000F2E700BF00D007400070044000E00740E4
:100290000050064000400640C01005008C040000DD
:1002A0000080FF1F0080FF1F0080FF1F0080FF1FD6
:1002B000FFFFFFFFFFFFFFFFFFFFFFFFFFFFFFFF4E
:1002C000FFFFFFFFFFFFFFFFFFFFFFFFFFFFFFFF3E
:1002D000FFFFFFFFFFFFFFFFFFFFFFFFFFFFFFFF2E
:1002E000FFFFFFFFFFFFFFFFFFFFFFFFFFFFFFFF1E
:1002F000FFFFFFFFFFFFFFFFFFFFFFFFFFFFFFFF0E
:10030000FFFFFFFFFFFFFFFFFFFFFFFFFFFFFFFFFD
:10031000FFFFFFFFFFFFFFFFFFFFFFFFFFFFFFFFED
:10032000FFFFFFFFFFFFFFFFFFFFFFFFFFFFFFFFDD
:10033000FFFFFFFFFFFFFFFFFFFFFFFFFFFFFFFFCD
:10034000FFFFFFFFFFFFFFFFFFFFFFFFFFFFFFFFBD
:10035000FFFFFFFFFFFFFFFFFFFFFFFFFFFFFFFFAD
:10036000FFFFFFFFFFFFFFFFFFFFFFFFFFFFFFFF9D
:10037000FFFFFFFFFFFFFFFFFFFFFFFFFFFFFFFF8D
:10038000FFFFFFFFFFFFFFFFFFFFFFFFFFFFFFFF7D
:10039000FFFFFFFFFFFFFFFFFFFFFFFFFFFFFFFF6D
:1003A000FFFFFFFFFFFFFFFFFFFFFFFFFFFFFFFF5D
:1003B000FFFFFFFFFFFFFFFFFFFFFFFFFFFFFFFF4D
:1003C000FFFFFFFFFFFFFFFFFFFFFFFFFFFFFFFF3D
:1003D000FFFFFFFFFFFFFFFFFFFFFFFFFFFFFFFF2D
:1003E000FFFFFFFFFFFFFFFFFFFFFFFFFFFFFFFF1D
:1003F000FFFFFFFFFFFFFFFFFFFFFFFFFFFFFFFF0D
:10040000FFFFFFFFFFFFFFFFFFFFFFFFFEFFFFFFFD
:1004100058B9704700BF00BF00BF00BF00BF00BF9A
:1004200000BF013BF6D10138F2E741F62143F8E77E
:1004300008B5084A084B20214FF4A2705161586159
:1004400051604FF4FA70FFF7E3FF32209160FFF73D
:10045000DFFFF5E780F00F4000B00440FEE7704793
:10046000FFF7FCBFFFF7FBBF00F000B8054B4CF2F5
:100470002052DA814DF62812DA8100BF00BF102227
:080480001A80704700200540BE
:04048800F8B500BF04
:04048C00F8B500BF00
:00000001FF
