:1000000000800020C1010000BD040000BD0400000C
:10001000BD040000BD040000BD040000BB040000DE
:10002000BB040000BB040000BB040000C1040000CE
:10003000C1040000BB040000C10400003104000042
:10004000C1040000C1040000C1040000C10400009C
:10005000C1040000C1040000C1040000C10400008C
:10006000C1040000C1040000C1040000C10400007C
:10007000C1040000C1040000C1040000C10400006C
:10008000C1040000BB040000C1040000C104000062
:10009000C1040000C1040000C1040000BB04000052
:1000A000C1040000C1040000C1040000C10400003C
:1000B000BB040000C1040000C1040000C104000032
:1000C000C1040000C1040000C1040000C10400001C
:1000D000C1040000BB040000BB040000BB0400001E
:1000E000BB040000BB040000BB040000BB04000014
:1000F000C1040000C1040000C1040000C1040000EC
:10010000C1040000C1040000C1040000BB040000E1
:10011000BB040000BB040000BB040000BB040000E3
:10012000BB040000C1040000C1040000C1040000C1
:10013000C1040000C1040000C1040000C1040000AB
:10014000C1040000C1040000C1040000C10400009B
:10015000C1040000C1040000C1040000C10400008B
:10016000C1040000C1040000C1040000BB04000081
:10017000BB040000BB040000BB040000BB04000083
:10018000BB040000C1040000BB040000C104000067
:10019000C1040000C1040000BB040000C104000051
:1001A000C1040000C1040000C1040000C10400003B
:1001B000BB040000BB040000C1040000BB0400003D
:1001C00008B500F07FF92F4B2F499A78120742BFEC
:1001D0009A7842F008029A702C4B2A221A7041F247
:1001E00038028B5843F478538B50294B0A221A70EB
:1001F000A3F5805324225A70A0221A709A7990078E
:10020000FCD59A79D106FCD4224B19469A7902F092
:100210000C02082AFAD105221A7143225A718B79ED
:100220009A06FCD51B4A93795B06FCD5164B41F226
:1002300044014FF08170585041F248010520585058
:100240002021117013498A7902F00C020C2AFAD18C
:1002500041F2040210499950104A114B11498B4246
:1002600007D3114B114A0021934207D300F0E6F85F
:10027000FEE752F8040F43F8040BF0E743F8041BC1
:10028000F2E700BF00D007400070044000E00740E4
:100290000050064000400640C0100500F805000070
:1002A0000080FF1F0080FF1F0080FF1F0080FF1FD6
:1002B000FFFFFFFFFFFFFFFFFFFFFFFFFFFFFFFF4E
:1002C000FFFFFFFFFFFFFFFFFFFFFFFFFFFFFFFF3E
:1002D000FFFFFFFFFFFFFFFFFFFFFFFFFFFFFFFF2E
:1002E000FFFFFFFFFFFFFFFFFFFFFFFFFFFFFFFF1E
:1002F000FFFFFFFFFFFFFFFFFFFFFFFFFFFFFFFF0E
:10030000FFFFFFFFFFFFFFFFFFFFFFFFFFFFFFFFFD
:10031000FFFFFFFFFFFFFFFFFFFFFFFFFFFFFFFFED
:10032000FFFFFFFFFFFFFFFFFFFFFFFFFFFFFFFFDD
:10033000FFFFFFFFFFFFFFFFFFFFFFFFFFFFFFFFCD
:10034000FFFFFFFFFFFFFFFFFFFFFFFFFFFFFFFFBD
:10035000FFFFFFFFFFFFFFFFFFFFFFFFFFFFFFFFAD
:10036000FFFFFFFFFFFFFFFFFFFFFFFFFFFFFFFF9D
:10037000FFFFFFFFFFFFFFFFFFFFFFFFFFFFFFFF8D
:10038000FFFFFFFFFFFFFFFFFFFFFFFFFFFFFFFF7D
:10039000FFFFFFFFFFFFFFFFFFFFFFFFFFFFFFFF6D
:1003A000FFFFFFFFFFFFFFFFFFFFFFFFFFFFFFFF5D
:1003B000FFFFFFFFFFFFFFFFFFFFFFFFFFFFFFFF4D
:1003C000FFFFFFFFFFFFFFFFFFFFFFFFFFFFFFFF3D
:1003D000FFFFFFFFFFFFFFFFFFFFFFFFFFFFFFFF2D
:1003E000FFFFFFFFFFFFFFFFFFFFFFFFFFFFFFFF1D
:1003F000FFFFFFFFFFFFFFFFFFFFFFFFFFFFFFFF0D
:10040000FFFFFFFFFFFFFFFFFFFFFFFFFEFFFFFFFD
:1004100058B9704700BF00BF00BF00BF00BF00BF9A
:1004200000BF013BF6D10138F2E741F62143F8E77E
:100430002E21014800F0AEB800A0064008B5174BC9
:100440001748184C4FF440721A644FF4E1315A6463
:1004500000F05AF81449124800F0A1F8134B202577
:100460004FF4A27265615A6162B6114B114A5A602B
:100470000B4E07221A6048213046656000F08AF86A
:100480004FF4FA70FFF7C4FF3046A5604C2100F02E
:1004900081F84FF4FA70FFF7BBFFECE700A00440CF
:1004A00000A0064080F00F40E405000000B00440CA
:1004B00010E000E000DD6D00FEE77047FFF7FCBFD5
:1004C000FFF7FBBF00F080B80E4B984210D003F549
:1004D000805398420ED003F5805398420CD003F518
:1004E000805398420AD003F5FA23984208D0FEE7D9
:1004F000002070470120704702207047032070479A
:100500000420704700A0064010B50246FFF7DCFF4C
:10051000042812D8DFE800F0030A252C33001A4C17
:1005200041F23400235843F4806305E0164C41F255
:100530003400235843F400632350002393700801D0
:10054000124B93FBF0F3C3F30420DBB21070537033
:100550000F4B93FBF1F1082301F01F019172D3704F
:1005600010BD094C41F23400235843F48053E3E7B3
:10057000054C41F23400235843F40053DCE7024CAD
:1005800041F22800CEE700BF0070044000A24A04F8
:100590000044950803791B06FCD5C17170470139E9
:1005A00011F8013F53B903791A06FCD50D23C37125
:1005B00003791B06FCD50A23C37170470279120622
:1005C000FCD5C371ECE7FFFF054B4CF22052DA81FA
:1005D0004DF62812DA8100BF00BF10221A80704742
:1005E000002005400D0A48656C6C6F2074686572C8
:0305F00065210082
:0405F400F8B500BF97
:0405F800F8B500BF93
:00000001FF
