:10000000E3C2000009C3000007C3000005C30000ED
:1000100003C3000001C30000FFC20000FDC20000D6
:10002000FBC20000F9C200000C94FC280C94C52906
:10003000F3C20000F1C20000EFC20000EDC20000F8
:10004000EBC200000C94630AE7C20000E5C20000A6
:10005000E3C20000E1C20000DFC20000DDC2000018
:10006000DBC20000D9C20000D7C20000D5C2000028
:10007000D3C20000D1C20000CFC20000CDC2000038
:10008000CBC20000C9C20000C7C20000C5C2000048
:10009000C3C20000C1C20000BFC20000BDC2000058
:1000A000BBC20000B9C20000B7C20000526F772087
:1000B00025322E32643A2000436F6C3A20202020F3
:1000C00030302020303120203032202030332020AA
:1000D000303420203035257300507265737320252D
:1000E0006420746F206164642061206E6577206BEA
:1000F00065796D617020617420696E646578202572
:10010000643A002573507265737320616E20696EC6
:10011000746567657220757020746F202564207483
:100120006F206F7665727772697465207468617488
:1001300020736C6F742C206F722573000A0D0A0DEA
:10014000005072657373206B6579206E756D626502
:1001500072206F72206C657474657220746F2065F4
:100160006469742C2027772720746F207772697454
:10017000652C2027712720746F20717569743A00EF
:1001800025732563202000526566657220746F20F8
:100190006B6579732077697468206E756D6265721E
:1001A0007320616E64206C6574746572732062657F
:1001B0006C6F773A0A0D0A0D0025734E6F206B6540
:1001C000796D61707320746F206C6F61642E25737C
:1001D000257300456E74657220302D256420746F80
:1001E000206C6F6164206B65796D61702066726F41
:1001F0006D20656570726F6D2E25730053686F7783
:10020000204B6579004379636C65206B65792061CB
:1002100072726F777300506F776572206F66660039
:100220005265706F7274206B65797072657373209C
:100230006F6E6C792E0053686F77204B6579005490
:100240006F67676C65206D6F75736520737065658A
:10025000642E004D205370656564004D6F757365A5
:10026000206D6964646C6520646F75626C652063E1
:100270006C69636B2E004D6F7573652D4D444B009B
:100280004D6F757365206D6964646C6520636C697E
:10029000636B2E004D6F7573652D4D4B004D6F7563
:1002A0007365206C65667420646F75626C6520638D
:1002B0006C69636B2E004D6F7573652D4C444B005C
:1002C0004D6F75736520726967687420646F75621D
:1002D0006C6520636C69636B2E004D6F7573652DC3
:1002E00052444B004D6F75736520726967687420C6
:1002F000636C69636B2E004D6F7573652D524B00F7
:100300004D6F757365206C65667420636C69636BF3
:100310002E004D6F7573652D4C4B004D6F757365D9
:100320002072696768742E004D6F7573652D525485
:10033000004D6F757365206C6566742E004D6F758A
:1003400073652D4C54004D6F75736520646F776E27
:100350002E004D6F7573652D444E004D6F7573659E
:100360002075702E004D6F7573652D5550005370BC
:10037000656369616C20616374696F6E2E005370F0
:10038000656369616C0053656E64206B65792073E9
:1003900065712E004B657970726573733A00446F16
:1003A000206E6F7468696E672E004E6F7468696E98
:1003B00067004E6F772065646974696E67206B65AE
:1003C0007970726573732025642573002563292075
:1003D00025730A0D004368616E6765206B6579209F
:1003E00073657120776974682074686520666F6C26
:1003F0006C6F77696E67206B6579733A0A0D004BF5
:1004000065796D617020736176656420746F206911
:100410006E64657820256420286F66667365742095
:100420002564292573002573454550524F4D204DB5
:10043000656E7525732573002573454550524F4DE4
:10044000207772697474656E2E2573004D61696E34
:10045000204D656E753A257300454550524F4D202D
:1004600025732E207665723D257825730073686F9D
:1004700077206B657920723A256420633A256420E1
:100480007365713A25640A0D0030034C005500462F
:100490000041002000430044004300200061006E42
:1004A00000640020004D006F00750073006500209F
:1004B00000440065006D006F0000001A034C0055F9
:1004C000004600410020004C00690062007200619B
:1004D000007200790000000403090409025F0003B0
:1004E0000100C032080B00020202010009040000F2
:1004F0000102020100052400100104240206052463
:10050000060001070582030800FF09040100020A32
:100510000000000705040210000507058302100013
:100520000509040200010300000009211101000176
:100530002279000705810308000512011001EF026E
:100540000108EB03622001000102DC010501090240
:10055000A10185010901A10005091901290315005F
:10056000250195037501810295017505810105013C
:100570000930093115FF250135FF45019502750840
:100580008106C0C005010906A1018502050719E021
:1005900029E7150025017501950881029501750867
:1005A000810105081901290595057501910295013B
:1005B0007503910115002565050719002965950644
:1005C00075088100C000772511241FBECFEFDAE047
:1005D000DEBFCDBF18E0A0E0B1E0E4E0FAE602C083
:1005E00005900D92AA3BB107D9F729E0AAEBB8E034
:1005F00001C01D92A837B207E1F712E0C4EED2E0C5
:1006000004C02197FE010E942F2FC33ED107C9F7D6
:100610000E941A250C940035F3CCFC0197A186A109
:10062000891771F0DF01A90FB11D56968C919F308B
:1006300029F09F5F97A3A89590E0089590E0FACFE6
:100640008FEFF9CF089522E0FC01268308950C94E2
:10065000CE2F0C94CE2F0C94CE2F0C94CE2FCF9364
:10066000DF93DB01EB0109900020E9F72197C61B1E
:10067000D70BFC0164897589CD010E94F331CE014D
:10068000DF91CF9108958F929F92AF92BF92EF9298
:10069000FF920F931F93CF93DF9349015A017B0180
:1006A000D0E0C0E0CE01B0E0A0E088159905AA0531
:1006B000BB0550F4F70161917F01800F911F0E94EB
:1006C0008F34A8952196EECFDF91CF911F910F9196
:1006D000FF90EF90BF90AF909F908F9008950F93F1
:1006E0001F93CB016091BA087091BB08600F711F16
:1006F000A9011F910F910C947F34009711F00C9475
:10070000A2250895CF93DF93C5E6D3E08881998130
:10071000DC01ED91FC910280F381E02D09951982B5
:100720001882DF91CF9108950F931F93CF93DF939A
:10073000CDB7DEB70F811885AE01455F5F4F698584
:100740007A8584EC98E00E941832D801ED91FC91F2
:100750000190F081E02D64EC78E0C8010995DF910B
:10076000CF911F910F910895CF92DF92EF92FF9258
:100770000F931F93CF93DF93C3E3D4E0DF93CF9323
:1007800085E794E09F938F930AE111E01F930F9305
:10079000CBDFDF93CF9388E894E09F938F938EE82D
:1007A00094E09F938F9384E994E09F938F931F939A
:1007B0000F93BADFDF93CF93E7E6F3E081818F9366
:1007C00080818F9385EA94E09F938F931F9286E7B1
:1007D0008F938DEAC82E84E0D82EDF92CF921F939C
:1007E0000F93A2DFDF93CF93809169031F928F93C2
:1007F00080ED94E09F938F931F9282E78F939CEB01
:10080000E92E94E0F92EFF92EF921F930F938CDF65
:100810008DB79EB788960FB6F8949EBF0FBE8DBF5A
:10082000DF93CF9380916A031F928F938AED94E0B8
:100830009F938F931F9283E68F93FF92EF921F9364
:100840000F9372DFDF93CF9380916B031F928F938F
:100850008BEC94E09F938F931F9286E68F93FF9289
:10086000EF921F930F9360DFDF93CF9380916C0320
:100870001F928F9385ED94E09F938F931F928CE648
:100880008F93FF92EF921F930F934EDF8DB79EB71A
:1008900084960FB6F8949EBF0FBE8DBFDF93CF93A3
:1008A00080916D031F928F938FED94E09F938F93B0
:1008B0001F9283E78F93FF92EF921F930F9334DF82
:1008C000DF93CF9380916E031F928F938AEE94E013
:1008D0009F938F931F928BE68F93FF92EF921F93BC
:1008E0000F9322DFDF93CF93EFE6F3E081818F93C5
:1008F00080818F9383EF94E09F938F931F9288E77B
:100900008F93FF92EF921F930F930EDF8DB79EB7D9
:1009100084960FB6F8949EBF0FBE8DBFDF93CF9322
:10092000E1E7F3E081818F9380818F938CEF94E0F6
:100930009F938F931F9289E78F93FF92EF921F935C
:100940000F93F2DEDF93CF93809173031F928F9307
:1009500085E095E09F938F931F928DE68F93FF9292
:10096000EF921F930F93E0DEDF93CF938091740398
:100970001F928F9380E195E09F938F931F928BE45A
:100980008F93FF92EF921F930F93CEDE8DB79EB79A
:1009900084960FB6F8949EBF0FBE8DBFDF93CF93A2
:1009A000809175031F928F938BE195E09F938F93B6
:1009B0001F9284E68F93DF92CF921F930F93B4DE42
:1009C000DF93CF938AE295E09F938F931F930F93CA
:1009D000ABDEDF93CF93DF93CF9385E395E09F93D7
:1009E0008F931F930F93A0DE8DB79EB74A960FB6D5
:1009F000F8949EBF0FBE8DBFDF91CF911F910F91D5
:100A0000FF90EF90DF90CF900895CF93DF9383E333
:100A100094E09F938F939F938F938EE395E09F93A2
:100A20008F938AE191E09F938F937EDE6DE475E072
:100A30008AE191E014DEC0E0D1E06EA57FA584E6F6
:100A400090E00E94C3316FE475E08AE191E007DE37
:100A500068E575E08AE191E002DE63E374E08AE133
:100A600091E0FDDD6DE475E08AE191E0F8DD6EA5D1
:100A70007FA583E590E00E94C3316FE475E08AE1D1
:100A800091E0EDDD68E575E08AE191E0E8DD63E3A2
:100A900074E08AE191E0E3DD6DE475E08AE191E0E4
:100AA000DEDD6EA57FA583E490E00E94C3316FE494
:100AB00075E08AE191E0D3DD68E575E08AE191E0D7
:100AC000CEDD63E374E08AE191E0C9DD6DE475E0B9
:100AD0008AE191E0C4DD6EA57FA589E690E00E94E1
:100AE000C3316FE475E08AE191E0B9DD63E374E05E
:100AF0008AE191E0B4DD6DE475E08AE191E0AFDD7B
:100B00006EA57FA589E490E00E94C3316FE475E093
:100B10008AE191E0A4DD68E575E08AE191E09FDD7E
:100B200063E374E08AE191E09ADD6DE475E08AE1C7
:100B300091E095DD6EA57FA582E690E00E94C3312D
:100B40006FE475E08AE191E08ADD68E575E08AE1AD
:100B500091E085DD63E374E08AE191E080DD6DE49E
:100B600075E08AE191E07BDD6EA57FA58FE690E0E0
:100B70000E94C3316FE475E08AE191E070DD68E5C1
:100B800075E08AE191E06BDD63E374E08AE191E076
:100B900066DD6DE475E08AE191E061DD6EA57FA51B
:100BA0008EE590E00E94C3316FE475E08AE191E048
:100BB00056DD68E575E08AE191E051DD63E374E0BC
:100BC0008AE191E04CDD6DE475E08AE191E047DD7A
:100BD0006EA57FA586E290E00E94C3316FE475E0C8
:100BE0008AE191E03CDD68E575E08AE191E037DD7E
:100BF00063E374E08AE191E032DD6DE475E08AE15F
:100C000091E02DDD6EA57FA58CE790E00E94C331B9
:100C10006FE475E08AE191E022DD68E575E08AE144
:100C200091E01DDD63E374E08AE191E018DD6DE49D
:100C300075E08AE191E013DD6EA57FA583E790E082
:100C40000E94C3316FE475E08AE191E008DD68E558
:100C500075E08AE191E003DD63E374E08AE191E00D
:100C6000FEDC6DE475E08AE191E0F9DC6EA57FA51C
:100C700083E690E00E94C3316FE475E08AE191E081
:100C8000EEDC68E575E08AE191E0E9DC63E374E0BD
:100C90008AE191E0E4DC6DE475E08AE191E0DFDC7B
:100CA0006EA57FA581E690E00E94C3316FE475E0F8
:100CB0008AE191E0D4DC68E575E08AE191E0CFDC7F
:100CC00063E374E08AE191E0CADC6DE475E08AE1F7
:100CD00091E0C5DC6EA57FA581E490E00E94C33160
:100CE0006FE475E08AE191E0BADC68E575E08AE1DD
:100CF00091E0B5DC8DB79EB708960FB6F8949EBF0D
:100D00000FBE8DBF63E374E08AE191E0DF91CF9184
:100D1000A6CCEF92FF920F931F93CF93DF9303E341
:100D200014E01F930F9380E695E09F938F93CAE1A1
:100D3000D1E0DF93CF93F8DC1F930F9382E795E028
:100D40009F938F931F928CE68F938EE7E82E85E01A
:100D5000F82EFF92EF92DF93CF93E6DC1F930F9371
:100D600087E895E09F938F931F9283E78F93FF927D
:100D7000EF92DF93CF93D8DC1F930F9383E995E035
:100D80009F938F931F9285E68F93FF92EF92DF934D
:100D9000CF93CADC8DB79EB784960FB6F8949EBFEA
:100DA0000FBE8DBF1F930F938FE995E09F938F9395
:100DB0001F9284E68F93FF92EF92DF93CF93B4DC80
:100DC0001F930F9380EB95E09F938F931F9280E783
:100DD0008F93FF92EF92DF93CF93A6DC1F930F9335
:100DE0008DEB95E09F938F931F9281E78F93FF92F6
:100DF000EF92DF93CF9398DC8DB79EB74E960FB6E8
:100E0000F8949EBF0FBE8DBFDF91CF911F910F91C0
:100E1000FF90EF90089523E334E03F932F931F92C8
:100E20008F9382EC95E09F938F938AE191E09F935B
:100E30008F937ADC8DB79EB708960FB6F8949EBF55
:100E40000FBE8DBF0895CF93DF93EC018E81833069
:100E500061F1843009F44AC0823009F063C0E8814E
:100E6000F9810680F781E02DCE01099584E08E831B
:100E70008091BE089091BF08A091C008B091C108B0
:100E80002B893C89820F931FA11DB11D8A8F9B8FD7
:100E9000AC8FBD8F8F89988D892B11F485E001C0AF
:100EA00083E0898FDF91CF910895E881F9810084F3
:100EB000F185E02DCE01099584E08E838091BE08F6
:100EC0009091BF08A091C008B091C1082D893E89BA
:100ED000820F931FA11DB11D8A8F9B8FAC8FBD8F79
:100EE0008F89988D892BD1F282E0DBCF8091BE086B
:100EF0009091BF08A091C008B091C1084A8D5B8D48
:100F00006C8D7D8D84179507A607B70758F2898DDC
:100F10008E838F89988D8F3F910509F00197988F67
:100F20008F8BC0CF8DE0DF91CF9175CF0F931F9343
:100F3000CF93DF93CDB7DEB70F811885AE01455F44
:100F40005F4F69857A8584EC98E00E943232D8013F
:100F5000ED91FC910190F081E02D64EC78E0C80106
:100F60000995DF91CF911F910F910895EF92FF9214
:100F70000F931F93CF93DF93C3E3D4E0DF93CF931B
:100F80008CE494E09F938F930AE111E01F930F93F9
:100F9000CDDFDF93CF938BEC95E09F938F931F92E0
:100FA00088E68F938BEDE82E85E0F82EFF92EF9286
:100FB0001F930F93B9DBDF93CF9387EE95E09F9359
:100FC0008F931F9285E68F93FF92EF921F930F935B
:100FD000ABDBDF93CF938EEF95E09F938F931F92C0
:100FE00087E68F93FF92EF921F930F939DDB8DB750
:100FF0009EB784960FB6F8949EBF0FBE8DBFDF9349
:10100000CF938EE196E09F938F931F9287E78F9304
:10101000FF92EF921F930F9387DBDF93CF9386E3CB
:1010200096E09F938F931F928BE68F93FF92EF92A0
:101030001F930F9379DBDF93CF93DF93CF9385E3F8
:1010400095E09F938F931F930F936EDB8DB79EB7A1
:101050004C960FB6F8949EBF0FBE8DBFDF91CF9117
:101060001F910F91FF90EF9008950F931F93CF93CF
:10107000DF938C01FC01C081D1812097B1F1E8811F
:10108000F9810480F581E02DCE0109958E818530AE
:1010900041F51F82AC85BD852E853F85F801808195
:1010A0009181C817D90711F4B183A083F801828117
:1010B0009381C817D90711F433832283109721F045
:1010C0001F963C932E931E972115310519F0F901B7
:1010D000B587A487E881F9810280F381E02DCE01F4
:1010E00009950C84DD85C02DC8CFDF91CF911F916C
:1010F0000F910895DC0112961C921297ED91FC91CC
:101100000680F781E02D0994CF93DF93EC0183E310
:1011100094E09F938F939F938F939F938F9386E2F7
:1011200094E09F938F938AE191E09F938F93FEDEEB
:101130008DB79EB70A960FB6F8949EBF0FBE8DBFAF
:10114000CE01DF91CF91D6CFD5CFCF93DF93EC01F6
:10115000D1DF84E2E6E7F3E0DE011F9601900D9215
:101160008A95E1F788E9EAE9F3E0DE01D396019098
:101170000D928A95E1F7DF91CF9108950F931F9318
:10118000CF93DF938B01EC01CB59DD4F888199819F
:10119000009739F0DC01ED91FC910280F381E02DA4
:1011A000099519830883D801ED91FC910190F08194
:1011B000E02DC801099588819981DC01ED91FC91B0
:1011C0000680F781E02DDF91CF911F910F91099457
:1011D000CF93DF93EC018A81813041F0882309F4B9
:1011E0003FC0823009F48CC084E098C08AE191E06D
:1011F00014DA8F3F59F08A3011F08D3051F4EC81C0
:10120000FD81EC0FFD1F178282E08A83DF91CF9171
:101210000895AC0155279A01205331092A30310530
:1012200030F086E0F8DDCE01DF91CF9163CF2C81E5
:101230003D81B9016F5F7F4F7D836C832C0F3D1F14
:10124000F90187836830710511F487E0EBCF609175
:101250002E0170912F01CA01DF91CF910C94C331FF
:101260008AE191E0DAD98E838F3F81F29EE8980F70
:10127000923028F19DE9980F923008F1982F9F7EC7
:101280009636E9F095E9980F9330C8F098E8980FF2
:101290009230A8F08B3499F0813749F533DA83E046
:1012A00090E00E94352FFC01128220E838E0318363
:1012B0002083BC0180E091E0DF91CF915FCF81E09E
:1012C0008A831D821C8283E394E09F938F9387E53A
:1012D00096E09F938F938AE191E09F938F9324DA16
:1012E0000F900F900F900F900F900F908FCFE8817D
:1012F000F9810680F781E02DCE01DF91CF9109942D
:101300008E81863799F4CE01F5DECE0107960E94D4
:101310006E318F3F910529F020F085E0DF91CF916C
:101320007ACD909368038093670370CF823779F406
:10133000CE01E0DECE0107960E946E319C01215065
:1013400031092630310548F7809369035FCF833632
:1013500079F4CE01CFDECE0107960E946E319C015A
:101360002150310926303105C0F680936A034ECFF3
:10137000863661F4CE01BEDECE0107960E946E3144
:101380008230910550F680936B0340CF8C3669F420
:10139000CE01B0DECE0107960E946E3182309105FB
:1013A00008F0BBCF80936C0331CF833781F4CE013B
:1013B000A1DECE0107960E946E319C0121503109B9
:1013C0002032310508F0A9CF80936D031FCF8B36F3
:1013D00071F4CE018FDECE0107960E946E318F3FF1
:1013E000910511F008F099CF80936E030FCF8837E5
:1013F00091F4CE017FDECE0107960E946E319C01F2
:10140000225031092F3F3D4108F087CF9093700360
:1014100080936F03FBCE893791F4CE016BDECE0152
:1014200007960E946E319C0122503109273A3C40B8
:1014300008F073CF9093720380937103E7CE8D36DB
:1014400069F4CE0157DECE0107960E946E318230DC
:10145000910508F062CF80937303D8CE8B3469F482
:10146000CE0148DECE0107960E946E318230910592
:1014700008F053CF80937403C9CE843609F0D3CEDD
:10148000CE0138DECE0107960E946E318F3F910566
:1014900011F008F042CF20916E03281719061CF0B6
:1014A00080937503B3CE89E039CFFC0121812F7D74
:1014B00040E150E070E060E0283509F402960E94B7
:1014C0005F30862F08951F921FB61F9211248F93AD
:1014D0009F93AF93BF938091BE089091BF08A09156
:1014E000C008B091C1080196A11DB11D8093BE082E
:1014F0009093BF08A093C008B093C108BF91AF916B
:101500009F918F911F901FBE1F9018959091400141
:10151000292F30E040914101B9016F5F7F4F46179D
:10152000170669F09F3011F4442349F020503F4FD3
:10153000F90180AB9F3021F09F5F909340010895A7
:1015400090E0FBCF8F929F92AF92BF92CF92DF92AB
:10155000EF92FF920F931F93CF93DF93C6E7D3E0F1
:1015600088811F928F938EE5C82E86E0D82EDF9259
:10157000CF929AE1E92E91E0F92EFF92EF92D4D822
:1015800007E008838FEF809377038093780380933D
:10159000790323E0822E80927A0380937B038093E9
:1015A0007C0380937D0310927E03D1E0D0937F0370
:1015B00012E01093800380938103809382038093D1
:1015C00083038093840390E19093850392E1909349
:1015D00086038093870380938803809389039CE02C
:1015E00090938A039DE090938B039EE090938C03ED
:1015F0009FE090938D0391E190938E039BE09093F5
:101600008F03C8E0C093900399E0909391039AE010
:101610009093920380939303809394038093950314
:1016200034E0B32EB092960345E0942E9092970347
:1016300056E0A52EA0929803009399031F920F9352
:10164000DF92CF92FF92EF926FD888E0EDE6F4E060
:10165000AAE9B3E001900D928A95E1F71092A603F2
:101660001092A7031092A8031092A903D093A2038B
:1016700081E68093A3038BE390E09093A50380938E
:10168000A4031092AE031092AF031092B003109215
:10169000B103D093AA0382E68093AB0385E191E086
:1016A0009093AD038093AC031092B6031092B703EE
:1016B0001092B8031092B903D093B20383E68093DB
:1016C000B30386E094E09093B5038093B403109243
:1016D000BE031092BF031092C0031092C103D093B7
:1016E000BA0383E38093BB038DE294E09093BD0340
:1016F0008093BC031092C9031092C8038092C20366
:1017000082E38093C30382E590E49093C5038093C2
:10171000C40382E590E09093C7038093C603EAEC8C
:10172000F3E0DF012C2F1D922A95E9F7108382E068
:1017300090E09093CD038093CC031092D603109247
:10174000D7031092D8031092D903D093D20321E388
:101750002093D30326E030E03093D5032093D403C5
:101760001092E1031092E0039092DA0324E32093B5
:10177000DB0320E530E43093DD032093DC0320E538
:1017800030E03093DF032093DE031092E6031092E3
:10179000E7031092E8031092E9031093E20347E392
:1017A0004093E30341E050E05093E5034093E403AA
:1017B0001092F1031092F003A092EA0346E34093E3
:1017C000EB034FE450E45093ED034093EC0330936C
:1017D000EF032093EE03E2EFF3E0DF012C2F1D92E5
:1017E0002A95E9F710839093F5038093F403EAEFC9
:1017F000F3E0DF012C2F1D922A95E9F710839093D7
:10180000FD038093FC031092090410920804B09227
:10181000020428E32093030421E530E43093050417
:101820002093040421E530E030930704209306045C
:10183000EAE0F4E0DF012C2F1D922A95E9F71083EE
:1018400090930D0480930C041092160410921704C8
:101850001092180410921904D093120424E62093D5
:1018600013042CE231E03093150420931404EAE1D0
:10187000F4E0DF012C2F1D922A95E9F70083E2E2C4
:10188000F4E0DF012C2F1D922A95E9F71083909345
:10189000250480932404EAE2F4E0DF012C2F1D925A
:1018A0002A95E9F7C0831F92DF938AE796E09F931A
:1018B0008F93FF92EF920E9494038DB79EB742964A
:1018C0000FB6F8949EBF0FBE8DBFDF91CF911F91D1
:1018D0000F91FF90EF90DF90CF90BF90AF909F90CF
:1018E0008F900895F8948FEF8DB9E0E8F0E0808153
:1018F0008860808389E08093810080E29EE49093F9
:10190000890080938800EFE6F0E080818260808328
:1019100078940895FC019091010180910001981B39
:1019200090838091030190910201891BFB018083C8
:1019300080910401811107C080910601811105C0C9
:10194000FA018083089581E0FBCF82E0F9CFF99B13
:1019500002C0A895FCCF08958F929F92AF92BF923C
:10196000DF92EF92FF920F931F93CF93DF93162F87
:1019700086E0489FF0011124E050FF4FE20FF11D77
:10198000EA58FD4F3081E32EF12CE70183E0CC0FC4
:10199000DD1F8A95E1F7CE0180509F4FFC01E6568E
:1019A000FD4F00818F559D4FFC01D080DD2009F453
:1019B0009AC061114FC06091BE087091BF088091BC
:1019C000C0089091C1088090450990904609A09068
:1019D0004709B0904809681979098A099B0928EED6
:1019E00033E040E050E00E940D2FFE01E056FC4F36
:1019F0008081982F9F70892E912CB12CA12C2815B5
:101A000039054A055B0508F4D7C082958F7090E0D0
:101A1000B0E0A0E082179307A407B50708F0D8C08C
:101A2000073009F4AFC008F0D5C0002309F459C04D
:101A3000033008F471C08091740381119BC0113090
:101A400011F480916D030350E02FF0E0E050FF4F60
:101A5000808362C08091BE089091BF08A091C008A9
:101A6000B091C1088093450990934609A093470916
:101A7000B0934809073009F485C018F5023009F41D
:101A800040C0C8F6013069F5113009F045C0C050BA
:101A9000DF4FFE01E456FD4F808191810E947D035E
:101AA000C256DD4F88819981DF91CF911F910F91AF
:101AB000FF90EF90DF90BF90AF909F908F900C942D
:101AC0007D030B3009F465C048F4083051F481E01F
:101AD000113009F080E0809306011EC00D500230E5
:101AE000D8F00E946A31073009F44CC038F20B304C
:101AF00009F44FC050F30D3009F452C00E3061F0BC
:101B0000F0CF113049F4C456DC4F8881998181307F
:101B1000910571F00297B1F0DF91CF911F910F9174
:101B2000FF90EF90DF90BF90AF909F908F900895BF
:101B300080917403823020F48F5F80937403ECCF24
:101B400080E0FBCF1F923F931F922F931F924F93E2
:101B50008DE694E09F938F938AE191E09F938F931A
:101B6000E5D98DB79EB70A960FB6F8949EBF0FBE03
:101B70008DBFD2CF813019F4C456DC4F93CFC256FB
:101B8000DC4F90CF81E0113009F080E080930401B8
:101B9000C3CF81E0113009F080E080930501BCCF14
:101BA0006111BACF80916D03880F803418F480934F
:101BB0006D03B2CF81E0FBCF073021F358F4023040
:101BC00009F4AACF08F037CF013009F4A5CF89CFA7
:101BD0000D2D26CF0B30E9F208F477CF0D3011F33D
:101BE0008DCF46E050E06FEF70E006960E94B43172
:101BF000579A5F98219A2998229A2A98239A2B9883
:101C0000249A2C98259A2D989DCC6F927F928F9232
:101C10009F92AF92BF92CF92DF92EF92FF920F937B
:101C20001F93CF93DF937C01612CAA24A394B12C42
:101C300080916A03681608F052C0E701C60DD11DF5
:101C40006E0186E0C80ED11C9E818C85981709F420
:101C500044C0712C8E01085E1F4FF6018081909167
:101C600069037916C8F5872CF8014081242F30E0EC
:101C7000072C02C0359527950A94E2F72170332787
:101C800090E0072C02C0959587950A94E2F780FDB5
:101C900012C0232B29F4262D472D61E0C7015CDEFD
:101CA000950101C0220F8A94EAF7F8018081822B06
:101CB00080837394D2CF232BE1F3C501072C01C09D
:101CC000880F0A94EAF7809584238083262D472D78
:101CD00060E0C70141DEEDCF8C876394A9CFDF912F
:101CE000CF911F910F91FF90EF90DF90CF90BF9019
:101CF000AF909F908F907F906F900895CF92DF92DA
:101D0000EF92FF920F931F93CF93DF93FC0180819B
:101D1000813009F446C0882361F0823009F456C04E
:101D2000DF91CF911F910F91FF90EF90DF90CF90B7
:101D3000089582A1811129C05F9882A1813039F56F
:101D4000299882A1823029F52A9882A1833019F539
:101D50002B9882A1843009F52C9882A18530F9F462
:101D60002D9881E080838091BE089091BF08A0915A
:101D7000C008B091C1080196A11DB11D8183928355
:101D8000A383B48382E08583CBCF5F9AD6CF299A91
:101D9000D8CF2A9ADACF2B9ADCCF2C9ADECF2D9A85
:101DA000E0CF8091BE089091BF08A091C008B0918B
:101DB000C108418152816381748184179507A60708
:101DC000B70708F4ADCF85818083AACF99B182A1EE
:101DD000482F50E0DF01A40FB51F16962C911697DF
:101DE0002E7F9170292B16962C93169799B191FB03
:101DF000CC24C0F8D12CCC0CDD1C922F9D7F9C29CB
:101E000016969C93169729B122FBEE24E0F8F12C4C
:101E1000EE0CFF1CEE0CFF1C9B7F9E2916969C93DC
:101E2000169729B123FB002700F910E033E0000FDB
:101E3000111F3A95E1F7977F902B16969C93169772
:101E400029B122952170C22F20E0D22F64E0CC0F5F
:101E5000DD1F6A95E1F79F7E9C2B16969C93169743
:101E600029B126FB662760F970E0C5E0660F771F91
:101E7000CA95E1F79F7D962B16969C934F5F5F4F17
:101E800090916A038F5F9417150609F00CF480E0B7
:101E900082A31082811144CFCF01DF91CF911F9196
:101EA0000F91FF90EF90DF90CF90AFCEFF920F9306
:101EB0001F93CF93DF93EC0105E713E0F8016081F6
:101EC00084E2F82E6F9DB001112468547F4F8091F9
:101ED000BA089091BB08680F791F44E250E0CE0128
:101EE0008A589D4F0E947F34F80160816F9DB00138
:101EF000112464527F4F8091BA089091BB08680FFB
:101F0000791F48E950E0CE0186569D4FDF91CF9171
:101F10001F910F91FF900C947F34CF92DF92EF923C
:101F2000FF920F931F93CF93DF93CDB7DEB76E97DA
:101F30000FB6F894DEBF0FBECDBF6C017E0120E16D
:101F4000E20EF11C8FE0D7011D928A95E9F7D601C8
:101F5000ED91FC910190F081E02D10E000E02FE088
:101F600030E040E050E0B701C601099588899989C1
:101F70008430914009F45AC084E091E09A838983C7
:101F800086E08B838C83FF24F394FD82FE8282E0C3
:101F90008F83188680E897E09A87898788E394E0A2
:101FA0009C878B87FD861E868FEF8F878FE0FE01D3
:101FB0003196A7E6B3E001900D928A95E1F7D6013C
:101FC000ED91FC910280F381E02D2FE030E040E0C4
:101FD00050E067E673E0C601099583E394E09F93C0
:101FE0008F93FF9284E08F9385E996E09F938F9380
:101FF00089E594E09F938F938AE191E09F938F937B
:102000000E9496070FB6F894DEBF0FBECDBF6E9646
:102010000FB6F894DEBF0FBECDBFDF91CF911F91F9
:102020000F91FF90EF90DF90CF9008958FE0F70130
:10203000A7E6B3E001900D928A95E1F783E394E07F
:102040009F938F9381E08F9384E08F938CE996E048
:102050009F938F9389E594E09F938F938AE191E01A
:102060009F938F930E9496070FB6F894DEBF0FBE22
:10207000CDBF809175038F3F51F280E091E016DF74
:10208000C6CF0F931F93CF93DF93EC01FC01E95967
:10209000FD4F8FE0DF011D928A95E9F73F9684E2BC
:1020A000DF011D928A95E9F7B49688E9DF011D9258
:1020B0008A95E9F70E94D52578948E01045E1F4F1A
:1020C000B8018CE494E00E944F2C1FA70EA78091CA
:1020D000BE089091BF08A091C008B091C108805679
:1020E000904FAF4FBF4F8AA79BA7ACA7BDA7FE01DC
:1020F000EF5BFF4F10823197108218861F8288EEA7
:1021000093E0A0E0B0E0898B9A8BAB8BBC8B809185
:10211000BE089091BF08A091C008B091C108885135
:102120009C4FAF4FBF4F89879A87AB87BC8768EEBC
:1021300073E080E090E0D6DB1E8A1D8A188E1F8A2D
:10214000A89588E19CE00FB6F894A895809360006C
:102150000FBE90936000CE01805C9D4F42DD84E015
:10216000FE0111928A95E9F7FE01349683E0DF01C2
:102170001D928A95E9F78091BE089091BF08A091C1
:10218000C008B091C1084AA55BA56CA57DA58417C0
:102190009507A607B70710F4A895EDCF8E010D5946
:1021A0001D4FC801D4DBC801B8DEFE01EB59FD4F5D
:1021B00011821082CE5CDC4F1882DF91CF911F918B
:1021C0000F9108950E9482038FE090E00E94352FC6
:1021D0002FE0FC0111922A95E9F72CE838E0FC0188
:1021E00031832083BC0180E091E00C94BE080E9402
:1021F000820381E190E00E94352F21E1FC011192E0
:102200002A95E9F728E938E0FC013183208300971B
:1022100011F40E946A31BC0180E091E00C94BE0888
:102220000F931F9310E000E02FE030E040E050E01B
:1022300067E673E083E693E00E94430383E394E060
:102240009F938F939F938F9388E394E09F938F93B3
:102250008AE191E09F938F930E9496078DB79EB776
:1022600008960FB6F8949EBF0FBE8DBF1F910F91B9
:1022700008950E94820385ED90E00E94352F25EDA0
:10228000FC0111922A95E9F724EA38E0FC01318338
:102290002083009711F40E946A31BC0180E091E034
:1022A0000C94BE08CF93DF93EC018AE191E00E9489
:1022B0000D038F3F31F1883681F4E881F981068082
:1022C000F781E02DCE010995E881F9810680F7813B
:1022D000E02DCE01DF91CF910994853619F4CE011E
:1022E00071DFF2CF873619F4CE0181DFEDCF87376A
:1022F00019F4CE0195DFE8CF8B3631F7CE01B9DF87
:10230000E3CFDF91CF910895FC018089823609F5F2
:1023100093B18585892323E334E03F932F931F9264
:102320008F9382EA96E09F938F938AE191E09F9347
:102330008F930E9494038DB79EB708960FB6F894BA
:102340009EBF0FBE8DBF66E374E08AE191E00C94FE
:102350002F03833611F496B1DCCF843611F499B192
:10236000D8CF80E0D8CFFC0180898236F9F483B1E0
:1023700023E334E03F932F931F928F9382EA96E0FA
:102380009F938F938AE191E09F938F930E94940390
:102390008DB79EB708960FB6F8949EBF0FBE8DBF3F
:1023A00066E374E08AE191E00C942F03833611F424
:1023B00086B1DECF843611F489B1DACF80E0D8CF90
:1023C000CF93FC018089823699F523B1458581E060
:1023D00090E0042E02C0880F991F0A94E2F730E0C3
:1023E0008223932302C0959587954A95E2F7C82FDB
:1023F00066E374E08AE191E00E942F0383E394E0B6
:102400009F938F931F92CF9382EA96E09F938F932F
:102410008AE191E09F938F930E9494038DB79EB7BA
:1024200008960FB6F8949EBF0FBE8DBFCF9108954A
:10243000833611F426B1CACFC0E08436C9F629B17B
:10244000C5CFCF93DF93EC018889823651F485B1F3
:1024500091E0892785B966E374E08AE191E00E9402
:102460002F038889833651F488B191E0892788B990
:1024700066E374E08AE191E00E942F038889843644
:1024800061F48BB191E089278BB966E374E08AE14E
:1024900091E0DF91CF910C942F03DF91CF910895BC
:1024A000CF93DF93EC018889823641F48D8584B91E
:1024B00066E374E08AE191E00E942F038889833605
:1024C00041F48D8587B966E374E08AE191E00E946A
:1024D0002F038889843651F48D858AB966E374E0C8
:1024E0008AE191E0DF91CF910C942F03DF91CF919E
:1024F0000895CF93DF93EC018889823681F484B10B
:102500009D8521E030E001C0220F9A95EAF7822BE9
:1025100084B966E374E08AE191E00E942F03888920
:10252000833681F487B19D8521E030E001C0220F20
:102530009A95EAF7822B87B966E374E08AE191E025
:102540000E942F038889843691F48AB19D8521E009
:1025500030E001C0220F9A95EAF7822B8AB966E330
:1025600074E08AE191E0DF91CF910C942F03DF9129
:10257000CF910895CF93DF93EC018889823689F457
:1025800024B13D8581E090E001C0880F3A95EAF7DB
:102590008095822384B966E374E08AE191E00E9429
:1025A0002F038889833689F427B13D8581E090E047
:1025B00001C0880F3A95EAF78095822387B966E3D0
:1025C00074E08AE191E00E942F038889843699F4AF
:1025D0002AB13D8581E090E001C0880F3A95EAF785
:1025E000809582238AB966E374E08AE191E0DF9105
:1025F000CF910C942F03DF91CF910895CF93DF9368
:10260000EC0188898236C9F425B13D8581E090E0EE
:1026100001C0880F3A95EAF78095822385B986E351
:1026200094E09F938F938AE191E09F938F930E9410
:1026300094030F900F900F900F9088898336C9F400
:1026400028B13D8581E090E001C0880F3A95EAF716
:102650008095822388B986E394E09F938F938AE1E3
:1026600091E09F938F930E9494030F900F900F908F
:102670000F9088898436C9F42BB13D8581E090E0C4
:1026800001C0880F3A95EAF7809582238BB986E3DB
:1026900094E09F938F938AE191E09F938F930E94A0
:1026A00094030F900F900F900F90DF91CF910895AA
:1026B000CF93DF93EC018889823671F42D8581E018
:1026C00090E001C0880F2A95EAF785B966E374E0C7
:1026D0008AE191E00E942F038889833671F42D8569
:1026E00081E090E001C0880F2A95EAF788B966E397
:1026F00074E08AE191E00E942F038889843681F496
:102700002D8581E090E001C0880F2A95EAF78BB90A
:1027100066E374E08AE191E0DF91CF910C942F039E
:10272000DF91CF910895CF93DF93EC0188898236B2
:1027300051F485B19D85892385B966E374E08AE10A
:1027400091E00E942F038889833651F488B19D85DA
:10275000892388B966E374E08AE191E00E942F033F
:102760008889843661F48BB19D8589238BB966E3B2
:1027700074E08AE191E0DF91CF910C942F03DF9117
:10278000CF910895CF93DF93EC018889823651F47D
:1027900085B19D85892B85B966E374E08AE191E076
:1027A0000E942F038889833651F488B19D85892B37
:1027B00088B966E374E08AE191E00E942F0388897A
:1027C000843661F48BB19D85892B8BB966E374E007
:1027D0008AE191E0DF91CF910C942F03DF91CF91AB
:1027E0000895CF93DF93EC018889823641F466E344
:1027F00074E08AE191E00E942F038D8585B9888974
:10280000833641F466E374E08AE191E00E942F038D
:102810008D8588B98889843641F466E374E08AE15D
:1028200091E00E942F038D858BB9DF91CF910895A0
:1028300020E420937C0027E820937A0020917C00FC
:10284000FC0185858770287F822B80937C00809196
:102850007A00806480937A0080917A0086FDFCCFB4
:102860000895CF92DF92EF92FF920F931F93CF9331
:10287000DF93EC018A81843009F4DFC080F488237F
:1028800001F1833009F483C082E0DF91CF911F9181
:102890000F91FF90EF90DF90CF900C940B07853055
:1028A00009F48FC0863081F7EF851FEF1E0F1F8759
:1028B000CE0105960E94550AFE01E10FF11D8587A4
:1028C0007BC08AE191E00E940D03082F182F8F3FF3
:1028D000B1F060912E0170912F0190E00E94C33100
:1028E000043611F40B831AC00335E1F30334D1F33A
:1028F000093671F40B831F861C8283E08A83DF9183
:10290000CF911F910F91FF90EF90DF90CF9008959E
:10291000093441F3023629F482E68B8381E08F8704
:10292000EBCF0F36F9F20E35E9F20632D9F20C3759
:10293000C9F20337B9F20336A9F2013631F40B8339
:1029400081E08F871C8285E0D9CF013419F40B8395
:1029500082E0F7CF80E00E940B07E881F9810680D2
:10296000F781E02DCE010995113749F60E948203C7
:1029700083E090E00E94352FFC01128220E838E0CD
:1029800031832083009709F0A4C00E946A318AE154
:1029900091E00E940D03082F182F8F3F09F4AFCF4D
:1029A00060912E0170912F0190E00E94C3318FE958
:1029B000800F8430C8F6088B8F858111C3CF84E0E7
:1029C0009DCF8AE191E00E940D036C01182F8F3F8B
:1029D00009F495CF60912E0170912F017C01FF24A5
:1029E000C7010E94C331C7010E948B31892BF1F0CE
:1029F000EC8181E08E0F8C83EC0FFD2FF11DC582E1
:102A0000883071F481E00E940B07CE01DF91CF91F5
:102A10001F910F91FF90EF90DF90CF900C947A0868
:102A2000823009F0A1CF86E08A839ECF81E00E94A8
:102A30000B07CE010E947A0897CF8B81843611F460
:102A4000CE012EDD8B81833511F4CE0152DD8B81D9
:102A5000833411F4CE018EDD8B81893611F4CE01E1
:102A600082DC8B81893411F4CE014EDC8B8182367D
:102A700011F4CE01A5DC8B818F3611F4CE01B1DECD
:102A80008B818E3511F4CE01DCDC8B81863211F422
:102A9000CE0149DE8B818C3711F4CE0173DE8B8140
:102AA000833711F4CE0104DE8B81833611F4CE011D
:102AB000A5DD8B81813611F4CE01BADE8B818134A4
:102AC00009F0A3CF80E480937C0087E880937A00AC
:102AD0009CCFBC0180E091E0DF91CF911F910F91DD
:102AE000FF90EF90DF90CF900C94BE08FC01DC01CA
:102AF000A553BF4F4C9188E0489FA0011124DF01EE
:102B0000A40FB51FD3968C91811159C0A0858A2F2F
:102B100090E0DC01AA0FBB1FA80FB91FAE0FBF1FAB
:102B20001B961C92DF01A40FB51FD5962D913C91E9
:102B300031FF02C081E082874E0F5F1FDA01D79616
:102B40008D919C9191FF02C041E0428735FF02C008
:102B500042E0428795FF02C042E0428730FF02C058
:102B600043E0428790FF02C043E0428734FF02C047
:102B700044E0428794FF02C044E0428732FF02C033
:102B800045E0428792FF02C045E0428736FF02C01F
:102B900046E0428796FF02C046E0428733FF02C00C
:102BA00047E0428793FF02C047E0428737FF02C0F9
:102BB00028E0228797FF02C088E08287089581304D
:102BC00069F4A0852A2F30E0D901AA0FBB1FA20FFC
:102BD000B31FAE0FBF1F1B968C93A4CF823089F317
:102BE000833079F3843069F3853059F3863049F3C3
:102BF000873039F3883029F3893019F38A3009F3A3
:102C00008B30F9F28C30E9F28D30D9F28E30C9F286
:102C100089CF83E394E09F938F931F921F921F921B
:102C20006F938FEF93E09F938F938AE191E09F934F
:102C30008F930E9496078DB79EB70A960FB6F894A9
:102C40009EBF0FBE8DBF08950F931F93CF93DF9349
:102C500085ED93E09F938F93CAE1D1E0DF93CF930B
:102C60000E94960788EA96E09F938F931F9281E6D1
:102C70008F930CEC13E01F930F93DF93CF930E947D
:102C8000960784EB96E09F938F931F9283E78F9331
:102C90001F930F93DF93CF930E9496078FEB96E0DD
:102CA0009F938F931F9284E68F931F930F93DF93CD
:102CB000CF930E9496078EEC96E09F938F931F927E
:102CC00086E68F931F930F93DF93CF930E9496070F
:102CD0008DB79EB784960FB6F8949EBF0FBE8DBF7A
:102CE0008DED96E09F938F931F928AE78F931F93AA
:102CF0000F93DF93CF930E9496078BEE96E09F93FE
:102D00008F931F9288E78F931F930F93DF93CF9337
:102D10000E94960789EF96E09F938F931F928EE60D
:102D20008F931F930F93DF93CF930E9496078DEBA2
:102D300095E09F938F931F9281E78F931F930F933B
:102D4000DF93CF930E9496078DB79EB780960FB6FC
:102D5000F8949EBF0FBE8DBF83E394E09F938F9343
:102D6000DF93CF930E9494030F900F900F900F90DA
:102D7000DF91CF911F910F91089583E097E09F938A
:102D80008F938AE191E09F938F930E9494030F9019
:102D90000F900F900F900895FC01E553FF4F408175
:102DA00028E0429FA0011124FC01E40FF51F23A994
:102DB000222331F02150840F951FFC0123AB08958D
:102DC0002EE0F9CFFC01E553FF4FE08128E0E29FC0
:102DD000F0011124E80FF91F83A98F5F8F3011F0E4
:102DE00083AB089513AA0895DC01FC01E553FF4F5E
:102DF000908118962C911897622F70E084E0989F2C
:102E000090011124F901E60FF71F3196EE0FFF1F15
:102E1000EA0FFB1F43A954A9CA010197411102C03F
:102E200084E690E0260F371F2F5F3F4F220F331F9E
:102E3000A20FB31F4427482B592BD4965C934E9373
:102E4000D3970895DC01FC01E553FF4F908118965C
:102E50002C911897622F70E084E0989F90011124C4
:102E6000F901E60FF71F3196EE0FFF1FEA0FFB1F68
:102E700043A954A9CA010196443611F490E080E0B8
:102E8000260F371F2F5F3F4F220F331FA20FB31F95
:102E90004427482B592BD4965C934E93D39708958F
:102EA000DC01FC01E553FF4F908118962C91189797
:102EB000622F70E084E0989F90011124F901E60FE1
:102EC000F71F3196EE0FFF1FEA0FFB1F83A994A98E
:102ED000AC0144274115510581F0440F551F260FC1
:102EE000371F2F5F3F4F220F331FA20FB31F482BF7
:102EF000D4965C934E93D397089540E051E0EFCF82
:102F0000FC01E553FF4F3081FC012085622F70E00A
:102F1000F4E03F9F90011124F901E60FF71F31966D
:102F2000EE0FFF1FE80FF91F03A8F4A9E02DAF0172
:102F300044274115510581F0569547954427260FA2
:102F4000371F2F5F3F4F220F331F280F391F4E2B84
:102F5000F90154AB43AB089540E050E8F0CFFC01D9
:102F600091E08085813009F490E0908723E334E09C
:102F70003F932F931F929F9382EB93E09F938F93A6
:102F80008AE191E09F938F930E9496078DB79EB739
:102F900008960FB6F8949EBF0FBE8DBF0895CF93CD
:102FA000C72F8AE097E0662309F48BC084E197E09D
:102FB000643009F486C086E197E0653009F481C089
:102FC0008EE095E0663009F47CC082E994E06730D9
:102FD00009F477C08CE894E0683009F472C088E1A5
:102FE00097E0693009F46DC08AE197E06A3009F42E
:102FF00068C08CE197E06B3009F463C08EE197E024
:103000006C3009F45EC080E297E06D3009F459C07D
:1030100082E297E06E3009F454C084E297E06F30AA
:1030200009F44FC086E297E0603109F44AC087E4B2
:1030300098E0613109F445C088E297E0623109F413
:1030400040C08BEB95E06331E1F18AE297E06431B7
:10305000C1F18CE297E06531A1F180E795E066313E
:1030600081F185E598E0673161F18EE297E06831A2
:1030700041F187EF96E0693121F180E598E06A310E
:1030800001F18AEF94E06B31E1F083E095E06C317F
:10309000C1F080E397E06D31A1F08BE797E06E31EE
:1030A00081F08FE797E06F3161F081E697E0603261
:1030B00041F084E697E0613221F06232C9F587E69B
:1030C00097E09F938F938FE097E09F938F938AE190
:1030D00091E09F938F930E9494030F900F900F9015
:1030E0000F900F900F906EEC77E0C1FD1CC069ED62
:1030F00077E0C5FD18C064EE77E0C0FD14C06EEE49
:1031000077E0C4FD10C068EF77E0C2FD0CC061E05D
:1031100078E0C6FD08C06AE078E0C3FD04C0C7FFE0
:103120003FC163E178E08AE191E0CF910C942F03F5
:103130008AE697E0633229F28DE697E0643209F27D
:1031400080E797E0653209F4BCCF83E797E0663209
:1031500009F4B7CF87E797E0673209F4B2CF683256
:1031600019F482E397E0ADCF86E397E0693209F482
:10317000A8CF8AE397E06A3209F4A3CF8DE397E002
:103180006B3209F49ECF81E497E06C3209F499CF59
:103190006D3219F487EC97E094CF85E497E06E32B6
:1031A00009F48FCF87E497E06F3209F48ACF89E47E
:1031B00097E0603309F485CF8BE497E0613309F43D
:1031C00080CF8DE497E0623309F47BCF8FE497E002
:1031D000633309F476CF81E198E0643309F471CF69
:1031E00081E597E0653309F46CCF83E597E06633BA
:1031F00009F467CF8AE996E0673309F462CF683350
:1032000019F485E597E05DCF87E597E0693309F428
:1032100058CF8AE597E06A3309F453CF8DE597E0FC
:103220006B3309F44ECF80E697E06C3309F449CF55
:1032300083E697E06D3309F444CF86E697E06E337A
:1032400009F43FCF89E697E06F3309F43ACF8CE673
:1032500097E0603409F435CF8FE697E0613409F4E4
:1032600030CF82E797E0623409F42BCF85E797E00F
:10327000633409F426CF89E797E0643409F421CF59
:103280008DE797E0653409F41CCF6A3419F481E8BE
:1032900097E017CF6B3419F486E897E012CF6C34BF
:1032A00019F48BE897E00DCF6D3419F48FE897E0AF
:1032B00008CF6E3419F483E997E003CF6F3419F423
:1032C00088E997E0FECE603519F48BE997E0F9CEF6
:1032D000613519F485E997E0F4CE623519F488E890
:1032E00097E0EFCE8EE997E0633509F4EACE6435D6
:1032F00009F487CF83EA97E0653509F4E2CE6635B5
:1033000009F448CF82EC97E0673509F4DACE6835E6
:1033100009F427CF693551F26A35E1F26B3559F27C
:103320006C3599F26D3509F4CACE6E3549F26F35B8
:1033300009F4ADCF603699F2613609F4ADCF85EA74
:1033400097E0623609F4BDCE633609F4AACF89EA64
:1033500097E0683E09F4B5CE8EEA97E0693E09F43D
:10336000B0CE83EB97E06A3E09F4ABCE86EB97E0F4
:103370006B3E09F4A6CE89EB97E06C3E09F4A1CE32
:103380008FEB97E06D3E09F49CCE84EC97E06E3EA7
:1033900009F497CE6F3E09F0A6CE89EC97E091CE66
:1033A000CF910895DF92EF92FF920F931F93CF93E7
:1033B000DF937C0188E0689F80011124F701E00F12
:1033C000F11FD3A8CD2DD0E0209709F0CEC083E324
:1033D00094E09F938F938EE993E09F938F938AEA73
:1033E00093E09F938F938CE198E09F938F938AE172
:1033F00091E09F938F930E949403EDB7FEB73A96A6
:103400000FB6F894FEBF0FBEEDBFC530D10509F071
:10341000F0C083E394E09F938F9381E393E09F93C5
:103420008F938DE393E09F938F938CE198E09F932C
:103430008F938AE191E09F938F930E9494038DB7BD
:103440009EB70A960FB6F8949EBF0FBE8DBFCA30C6
:10345000D10509F0F0C083E394E09F938F938DE949
:1034600092E09F938F9386EB92E09F938F938CE1F2
:1034700098E09F938F938AE191E09F938F930E94AE
:103480009403EDB7FEB73A960FB6F894FEBF0FBEA1
:10349000EDBFF1E0DF1609F40AC282E0D81254C190
:1034A000F701E00FF11F85A996A9892BD1F483E3D9
:1034B00094E09F938F9386E192E09F938F9381E2B4
:1034C00098E09F938F938AE191E09F938F930E945E
:1034D0009403EDB7FEB738960FB6F894FEBF0FBE53
:1034E000EDBFF701E00FF11F85A996A90197D1F46F
:1034F00083E394E09F938F9385E092E09F938F9373
:1035000081E298E09F938F938AE191E09F938F935C
:103510000E9494038DB79EB708960FB6F8949EBF8D
:103520000FBE8DBF0E0D1F1DF80185A996A902972C
:1035300009F00AC183E394E09F938F938CEF91E0AD
:103540009F938F9381E298E09F938F938AE191E01C
:103550009F938F930E9494038DB79EB708960FB6E2
:10356000F8949EBF0FBE8DBFEFC0C130D105F9F4F6
:1035700083E394E09F938F9386E893E09F938F93E8
:1035800084E993E09F938F938CE198E09F938F93CE
:103590008AE191E09F938F930E9494038DB79EB729
:1035A0000A960FB6F8949EBF0FBE8DBF2ECFC230C5
:1035B000D10509F063C083E394E09F938F938EE677
:1035C00093E09F938F938EE793E09F938F938CE18B
:1035D00098E09F938F938AE191E09F938F930E944D
:1035E0009403EDB7FEB73A960FB6F894FEBF0FBE40
:1035F000EDBFC630D10509F063C083E394E09F932B
:103600008F938BE193E09F938F9388E293E09F9356
:103610008F938CE198E09F938F938AE191E09F9341
:103620008F930E949403EDB7FEB73A960FB6F894C5
:10363000FEBF0FBEEDBFCB30D10509F063C083E301
:1036400094E09F938F9380E892E09F938F9384E917
:1036500092E09F938F938CE198E09F938F938AE100
:1036600091E09F938F930E9494038DB79EB70A9623
:103670000FB6F8949EBF0FBE8DBF0BCFC330D105E0
:1036800009F06AC083E394E09F938F938BE593E006
:103690009F938F9385E693E09F938F938CE198E0BF
:1036A0009F938F938AE191E09F938F930E9494035D
:1036B0008DB79EB70A960FB6F8949EBF0FBE8DBF0A
:1036C000C730D10509F0AEC083E394E09F938F9398
:1036D00080E093E09F938F9382E193E09F938F9399
:1036E0008CE198E09F938F938AE191E09F938F9371
:1036F0000E9494038DB79EB70A960FB6F8949EBFAA
:103700000FBE8DBFCC30D10509F0AEC083E394E08D
:103710009F938F938BE592E09F938F9386E792E040
:103720009F938F938CE198E09F938F938AE191E030
:103730009F938F930E949403EDB7FEB73A960FB60E
:10374000F894FEBF0FBEEDBFDF91CF911F910F9197
:10375000FF90EF90DF900895C430D10509F055CE69
:1037600083E394E09F938F9386E493E09F938F93FA
:1037700082E593E09F938F938CE198E09F938F93E2
:103780008AE191E09F938F930E949403EDB7FEB777
:103790003A960FB6F894FEBF0FBEEDBFC930D10503
:1037A00009F055CE83E394E09F938F9380EC92E0F1
:1037B0009F938F938AED92E09F938F938CE198E093
:1037C0009F938F938AE191E09F938F930E9494033C
:1037D0008DB79EB70A960FB6F8949EBF0FBE8DBFE9
:1037E0002E9709F056CE83E394E09F938F9380E267
:1037F00092E09F938F9386E392E09F938F938CE167
:1038000098E09F938F938AE191E09F938F930E941A
:103810009403EDB7FEB73A960FB6F894FEBF0FBE0D
:10382000EDBF92CFC830D10509F0B8CF83E394E063
:103830009F938F9384EE92E09F938F9387EF92E014
:103840009F938F938CE198E09F938F938AE191E00F
:103850009F938F930E949403EDB7FEB73A960FB6ED
:10386000F894FEBF0FBEEDBFCD30D10509F0B8CF43
:1038700083E394E09F938F938FE392E09F938F93E2
:1038800083E592E09F938F938CE198E09F938F93D1
:103890008AE191E09F938F930E9494038DB79EB726
:1038A0000A960FB6F8949EBF0FBE8DBF4DCFF7019D
:1038B000E00FF11F65A976A96115710511F0C70127
:1038C0006EDBE701C00FD11F8FA998AD892B09F4DA
:1038D0003BCF63E577E08AE191E00E942F036FA977
:1038E00078ADC701DF91CF911F910F91FF90EF90BD
:1038F000DF9055CBEF92FF920F931F93CF93DF93FF
:103900007C0163E374E08AE191E00E942F031F923F
:1039100081E38F9306E218E01F930F93CAE1D1E091
:10392000DF93CF930E94940360E0C7013BDD63E324
:1039300074E0CE010E942F031F9282E38F931F93A6
:103940000F93DF93CF930E94940361E0C7012ADDB8
:1039500063E374E0CE010E942F031F9283E38F93F1
:103960001F930F93DF93CF930E94940362E0C701EC
:1039700019DD63E374E0CE010E942F031F9284E3FC
:103980008F931F930F93DF93CF930E94940363E071
:10399000C70108DD63E374E0CE010E942F031F928C
:1039A00085E38F931F930F93DF93CF930E9494032C
:1039B00064E0C701F7DC63E374E0CE010E942F03EB
:1039C0001F9286E38F931F930F93DF93CF930E94F1
:1039D00094038DB79EB784960FB6F8949EBF0FBE22
:1039E0008DBF65E0C701DEDC63E374E0CE010E94B9
:1039F0002F031F9287E38F931F930F93DF93CF9330
:103A00000E94940366E0C701CDDC63E374E0CE015D
:103A10000E942F031F9288E38F931F930F93DF93CE
:103A2000CF930E94940367E0C701BCDC63E374E0BA
:103A3000CE010E942F031F9289E38F931F930F9350
:103A4000DF93CF930E94940368E0C701ABDC63E38C
:103A500074E0CE010E942F031F9281E68F931F9383
:103A60000F93DF93CF930E94940369E0C7019ADC20
:103A700063E374E0CE010E942F031F9282E68F93CE
:103A80001F930F93DF93CF930E9494036AE0C701C3
:103A900089DC63E374E0CE010E942F031F9283E66A
:103AA0008F931F930F93DF93CF930E9494038DB74F
:103AB0009EB784960FB6F8949EBF0FBE8DBF6BE085
:103AC000C70170DC63E374E0CE010E942F031F92F4
:103AD00084E68F931F930F93DF93CF930E949403F9
:103AE0006CE0C7015FDC63E374E0CE010E942F034A
:103AF0001F9285E68F931F930F93DF93CF930E94BE
:103B000094036DE0C7014EDC63E374E0CE010E94D4
:103B10002F031F9286E68F931F930F93DF93CF930C
:103B20000E9494036EE0C7013DDC63E374E0CE01C4
:103B30000E942F031F9287E68F931F930F93DF93AB
:103B4000CF930E9494036FE0C7012CDC63E374E021
:103B5000CE010E942F031F9288E68F931F930F932D
:103B6000DF93CF930E94940360E1C7011BDC63E302
:103B700074E0CE010E942F031F9289E68F931F935A
:103B80000F93DF93CF930E9494038DB79EB78496D3
:103B90000FB6F8949EBF0FBE8DBF61E1C70102DC76
:103BA00063E374E0CE010E942F031F928AE68F9395
:103BB0001F930F93DF93CF930E94940362E1C70199
:103BC000F1DB0F900F900F900F900F900F9063E329
:103BD00074E0CE01DF91CF911F910F91FF90EF9094
:103BE0000C942F03CF93DF93EC0180916E0381112E
:103BF0001DC083E394E09F938F939F938F939F9334
:103C00008F9389EB91E09F938F938AE191E09F934B
:103C10008F930E949607CE010E947A088DB79EB7B7
:103C20000A960FB6F8949EBF0FBE8DBF83E394E053
:103C30009F938F9380916E031F928F9383ED91E0FA
:103C40009F938F938AE191E09F938F930E949607B1
:103C50008BE08A838DB79EB708960FB6F8949EBF07
:103C60000FBE8DBFDF91CF910895CF92DF92EF927B
:103C7000FF920F931F93CF93DF9387E891E09F9379
:103C80008F93CAE1D1E0DF93CF930E9496071F92F2
:103C900081E38F9383E3C82E84E0D82EDF92CF9206
:103CA00000E811E01F930F93DF93CF930E949607D4
:103CB0001F9282E38F939EE4E92E95E0F92EFF9206
:103CC000EF921F930F93DF93CF930E9496071F925B
:103CD00083E38F93FF92EF921F930F93DF93CF9322
:103CE0000E9496071F9284E38F93FF92EF921F9397
:103CF0000F93DF93CF930E9496078DB79EB784965C
:103D00000FB6F8949EBF0FBE8DBF1F9285E38F93B1
:103D1000DF92CF921F930F93DF93CF930E9496076A
:103D20001F9286E38F93FF92EF921F930F93DF937F
:103D3000CF930E9496071F9287E38F93FF92EF9293
:103D40001F930F93DF93CF930E9496071F9288E3F0
:103D50008F93FF92EF921F930F93DF93CF930E9465
:103D600096078DB79EB780960FB6F8949EBF0FBE8C
:103D70008DBF1F9289E38F93DF92CF921F930F9392
:103D8000DF93CF930E9496071F9281E68F93FF9255
:103D9000EF921F930F93DF93CF930E9496071F928A
:103DA00082E68F93FF92EF921F930F93DF93CF934F
:103DB0000E9496071F9283E68F93FF92EF921F93C4
:103DC0000F93DF93CF930E9496078DB79EB780968F
:103DD0000FB6F8949EBF0FBE8DBF1F9284E68F93DF
:103DE000DF92CF921F930F93DF93CF930E9496079A
:103DF0001F9285E68F93FF92EF921F930F93DF93AD
:103E0000CF930E9496071F9286E68F93FF92EF92C0
:103E10001F930F93DF93CF930E9496071F9287E61D
:103E20008F93FF92EF921F930F93DF93CF930E9494
:103E300096078DB79EB780960FB6F8949EBF0FBEBB
:103E40008DBF1F9288E68F93DF92CF921F930F93BF
:103E5000DF93CF930E9496071F9289E68F93FF927C
:103E6000EF921F930F93DF93CF930E9496071F92B9
:103E70008AE68F93FF92EF921F930F93DF93CF9376
:103E80000E9496078CE391E09F938F93DF93CF93EB
:103E90000E94960781E491E09F938F93DF93CF93E5
:103EA0000E9496078DB79EB780960FB6F8949EBF76
:103EB0000FBE8DBFDF91CF911F910F91FF90EF90BB
:103EC000DF90CF900895CF93DF93EC0113DDCE0107
:103ED000CCDE88E08A83DF91CF9108952F923F92C4
:103EE0004F925F927F928F929F92AF92BF92CF92AA
:103EF000DF92EF92FF920F931F93CF93DF936C01AA
:103F000083E394E09F938F9388EB90E09F938F934C
:103F10008AE191E09F938F930E94960776010F901C
:103F20000F900F900F900F900F9010E000E0CAE1FB
:103F3000D1E088E3282E88E0382E90E3492E98E0DF
:103F4000592E23E3822E24E0922E1F930F938CEAA6
:103F500090E09F938F93DF93CF930E9496070F90EB
:103F60000F900F900F900F900F905701712CF6014A
:103F70008381801310C0848187110DC08BE298E08B
:103F80009F938F93DF93CF930E9494030F900F9092
:103F90000F900F9013C0F50187858F3F09F444C03F
:103FA0001F928F935F924F92DF93CF930E9494035F
:103FB0000F900F900F900F900F900F907394EFEF62
:103FC000AE1ABE0AF6E07F12D2CF9F928F92DF9395
:103FD000CF930E9494030F5F1F4F96E0E90EF11CF0
:103FE0000F900F900F900F900630110509F0ADCF94
:103FF0009F928F92DF93CF930E9494030F900F9024
:104000000F900F90DF91CF911F910F91FF90EF9044
:10401000DF90CF90BF90AF909F908F907F905F90F8
:104020004F903F902F9008953F922F92DF93CF9320
:10403000ABCFCF92DF92EF92FF920F931F93CF936C
:10404000DF936C0183E3E82E84E0F82EFF92EF9279
:104050008DE398E09F938F931F9283E68F930EE7F3
:1040600015E01F930F93CAE1D1E0DF93CF930E9435
:104070009403FF92EF9289E498E09F938F931F92AD
:1040800082E78F931F930F93DF93CF930E94940344
:10409000FF92EF9282E598E09F938F931F9285E6BF
:1040A0008F931F930F93DF93CF930E949403FF92FC
:1040B000EF9287E598E09F938F931F9281E78F930C
:1040C0001F930F93DF93CF930E949403F601138203
:1040D0001482EC52FF4F10828DB79EB788960FB6B0
:1040E000F8949EBF0FBE8DBFC601F8DE8FE0F601CB
:1040F0008283DF91CF911F910F91FF90EF90DF901E
:10410000CF900895CF93DF93EC0120916E0322238B
:10411000D1F083E394E09F938F931F922F939F930B
:104120008F9383E091E09F938F938AE191E09F9337
:104130008F930E9496078DB79EB70A960FB6F89494
:104140009EBF0FBE8DBF80916E031F928F931F92F3
:104150008F9389ED90E09F938F938AE191E09F93F5
:104160008F930E9496078CE08A838DB79EB708963E
:104170000FB6F8949EBF0FBE8DBFDF91CF9108950B
:104180000E94820383E090E00E94352FFC0112829E
:1041900020E838E031832083009711F40E946A31CF
:1041A000BC0180E091E00C94BE08EF92FF920F9367
:1041B0001F93CF93DF93EC018A818C3009F42CC3D9
:1041C000F0F5883009F4CAC040F4882309F476C0B9
:1041D00088E00E940B070E946A318A3009F4B7C256
:1041E0008B30B1F78AE191E00E940D038F3F09F413
:1041F000EFC0482F4053550B4A30510508F43CC3DB
:104200008A3011F08D30B9F4FE01EC52FF4FE0819D
:10421000EC0FFD2FF11DE453FF4F1082CE018453AC
:104220009F4F0E946E3190916E03891708F4DFC290
:1042300089E00E940B078AE00E940B0797C08E302E
:1042400009F4D8C208F4C4C08F3009F422C3803105
:1042500009F0BECF8AE191E00E940D038F3F09F47F
:10426000B7C0DE01AC52BF4F482F4053550B4A3008
:10427000510550F4EC9191E09E0F9C93EC0FFD2FB3
:10428000F11DE453FF4F8083EB80F12CEC810E2F66
:1042900010E08C91882309F41AC3CE0184539F4FF8
:1042A0000E946E3196E09E9DF0019F9DF00D1124BD
:1042B000EC0FFD1FE00FF11F878731C08AE191E00D
:1042C0000E940D038F3F09F483C08C3641F4CE0168
:1042D000DF91CF911F910F91FF90EF9083CC8337A7
:1042E00041F4CE01DF91CF911F910F91FF90EF909C
:1042F00009CF853641F4CE01DF91CF911F910F9107
:10430000FF90EF90E0CD843641F4CE01DF91CF9164
:104310001F910F91FF90EF90EDCA803741F4CE01CD
:10432000DF91CF911F910F91FF90EF9082CE813757
:1043300041F4CE01DF91CF911F910F91FF90EF904B
:104340001FCFE881F9810680F781E02DCE01DF9152
:10435000CF911F910F91FF90EF9009948AE191E026
:104360000E940D038F3FA1F1813749F4CE01DF9107
:10437000CF911F910F91FF90EF900C947A0887379F
:1043800019F489E08A8324C0813349F51F921F9272
:104390008CE598E09F938F938AE191E09F938F93B0
:1043A0000E949403FE01E553FF4F1082CE010E944C
:1043B000241660E0CE010E94D219CE010E9476152B
:1043C0008AE08A830F900F900F900F900F900F90BC
:1043D000DF91CF911F910F91FF90EF90089582335D
:1043E000B1F41F9211E01F938CE598E09F938F9397
:1043F0008AE191E09F938F930E949403FE01E5531D
:10440000FF4F1083CE010E94241661E0D3CF833387
:10441000B1F41F9212E01F938CE598E09F938F9365
:104420008AE191E09F938F930E949403FE01E553EC
:10443000FF4F1083CE010E94241662E0BBCF84336D
:10444000B1F41F9213E01F938CE598E09F938F9334
:104450008AE191E09F938F930E949403FE01E553BC
:10446000FF4F1083CE010E94241663E0A3CF853353
:10447000B1F41F9214E01F938CE598E09F938F9303
:104480008AE191E09F938F930E949403FE01E5538C
:10449000FF4F1083CE010E94241664E08BCF863339
:1044A000B1F41F9215E01F938CE598E09F938F93D2
:1044B0008AE191E09F938F930E949403FE01E5535C
:1044C000FF4F1083CE010E94241665E073CF87331F
:1044D000B1F41F9216E01F938CE598E09F938F93A1
:1044E0008AE191E09F938F930E949403FE01E5532C
:1044F000FF4F1083CE010E94241666E05BCF883305
:10450000B1F41F9217E01F938CE598E09F938F936F
:104510008AE191E09F938F930E949403FE01E553FB
:10452000FF4F1083CE010E94241667E043CF8933EA
:10453000B1F41F9218E01F938CE598E09F938F933E
:104540008AE191E09F938F930E949403FE01E553CB
:10455000FF4F1083CE010E94241668E02BCF8136D6
:10456000B1F41F9219E01F938CE598E09F938F930D
:104570008AE191E09F938F930E949403FE01E5539B
:10458000FF4F1083CE010E94241669E013CF8236BC
:10459000E9F41F921AE01F938CE598E09F938F93A4
:1045A0008AE191E09F938F930E949403FE01E5536B
:1045B000FF4F1083CE010E9424166AE0CE010E94B4
:1045C000D219CE010E9476151A83FCCE8336B1F43F
:1045D0001F921BE01F938CE598E09F938F938AE1D5
:1045E00091E09F938F930E949403FE01E553FF4F48
:1045F0001083CE010E9424166BE0DCCE8436B1F429
:104600001F921CE01F938CE598E09F938F938AE1A3
:1046100091E09F938F930E949403FE01E553FF4F17
:104620001083CE010E9424166CE0C4CE8536B1F40E
:104630001F921DE01F938CE598E09F938F938AE172
:1046400091E09F938F930E949403FE01E553FF4FE7
:104650001083CE010E9424166DE0ACCE8636B1F4F4
:104660001F921EE01F938CE598E09F938F938AE141
:1046700091E09F938F930E949403FE01E553FF4FB7
:104680001083CE010E9424166EE094CE8736B1F4DA
:104690001F921FE01F938CE598E09F938F938AE110
:1046A00091E09F938F930E949403FE01E553FF4F87
:1046B0001083CE010E9424166FE07CCE8836B1F4C0
:1046C0001F9210E11F938CE598E09F938F938AE1EE
:1046D00091E09F938F930E949403FE01E553FF4F57
:1046E0001083CE010E94241660E164CE8936B1F4B5
:1046F0001F9211E11F938CE598E09F938F938AE1BD
:1047000091E09F938F930E949403FE01E553FF4F26
:104710001083CE010E94241661E14CCE8A3609F046
:1047200057CE1F9212E11F938CE598E09F938F93D1
:104730008AE191E09F938F930E949403FE01E553D9
:10474000FF4F1083CE010E94241662E133CE8AE12E
:1047500091E00E940D03182F8F3F09F439CE813666
:10476000E1F4CE010E94E21663E374E08AE191E095
:104770000E942F03CE010E942416113709F428CE7F
:10478000FE01E553FF4F6081CE01DF91CF911F9174
:104790000F91FF90EF900C94D219833721F4CE0142
:1047A0000E94CC16E1CF843621F4CE010E9422175C
:1047B000DBCF863621F4CE010E94F416D5CF8A379E
:1047C00021F4CE010E945017CFCF883721F4CE01BB
:1047D0000E948017C9CF8E3621F4CE010E94AF17F8
:1047E000C3CF813709F6CE010E947A08BDCF8DE094
:1047F0008A8321CDCE0184539F4F0E946E31182FA2
:1048000080916E03811718F489E00E940B07612FD5
:10481000CE010E940916AACD8AE191E00E940D0303
:104820008F3F09F4D5CD482F4053550B4A305105E1
:1048300018F18A3019F08D3009F0FDCCFE01EC52F0
:10484000FF4FE081EC0FFD2FF11DE453FF4F10826D
:10485000CE0184539F4F0E946E3190916E03981742
:1048600048F489E0DF91CF911F910F91FF90EF9075
:104870000C940B078EE086CDFE01EC52FF4F908129
:1048800021E0290F2083C90FD11DC453DF4F888336
:104890009FCD8AE191E00E940D038F3F09F498CDEE
:1048A000833669F48C818F5F863011F51C82CE01CE
:1048B000DF91CF911F910F91FF90EF900FCB823737
:1048C000C9F48B818F5F863071F41B82F0CF86E054
:1048D0008E9DF0018F9DF00D1124EC0FFD1FE00F58
:1048E000F11F8FEFE9CC8B83E2CF813701F73ECD0B
:1048F0008C83DDCF8536C9F780E18A83FE01EC52D7
:10490000FF4F1082CE010E94BD16D1CFCF93DF930F
:10491000FC01DB0117968C911797882329F08CE016
:10492000DF91CF910C940B0781E016968C9316972C
:104930004091BE085091BF086091C0087091C108B5
:1049400012964D935D936D937C931597C281D3819D
:10495000209771F4B383A283B183A083ED91FC917E
:1049600011970190F081E02DCD01DF91CF91099455
:10497000BD87AC87828193811F969C938E931E97EF
:104980001D961C921E921C97B383A283E7CFCF93F0
:10499000DF93EC018091BE089091BF08A091C00800
:1049A000B091C1084A815B816C817D818417950734
:1049B000A607B707C8F04091BE085091BF086091A4
:1049C000C0087091C1088A859B85AC85BD85840F20
:1049D000951FA61FB71F8A839B83AC83BD83E88185
:1049E000F981309709F009958091BE089091BF0830
:1049F000A091C008B091C1084E815F81688579851A
:104A0000481759076A077B0791F08091BE0890917B
:104A1000BF08A091C008B091C1088E839F83A8876A
:104A2000B98785E191E0DF91CF910C943508DF9152
:104A3000CF910895CDB7DEB76E970FB6F894DEBF6D
:104A40000FBECDBF80E091E09093C3088093C20871
:104A50000E94411063E374E08AE191E00E942F0319
:104A600063E374E08AE191E00E942F0383E090E029
:104A70000E94352FDC0112961C92129720E838E034
:104A80002D933C93BC0180E091E00E94BE0880EB36
:104A900098E09A83898384E6898B81E08A8B1B8ADC
:104AA0008AE090E09D8B8C8B9F8B8E8B84E690E0D0
:104AB000998F888FBE016F5F7F4F85E191E026DF80
:104AC00080E493E00E947E0E87E091E060DFA8958D
:104AD000E4D08091650390916603009789F3DC012F
:104AE000ED91FC910480F581E02D0995E9CFECE191
:104AF000F1E086E2DF011D928A95E9F788E798E008
:104B000090931B0180931A01089590914A09809116
:104B10004B0930E020E0981799F0E0914A09F0E065
:104B2000EE0FFF1FEB5AF64F2081318180914A0929
:104B300090E0883019F090914A099F5F90934A095C
:104B4000C901089520914B09283081F420914A0928
:104B5000222341F1E0914B09F0E0EE0FFF1FEB5AE9
:104B6000F64F9183808310924B09089520914B0951
:104B700040914A0930E02F5F3F4F4217130691F0F2
:104B8000E0914B09F0E0EE0FFF1FEB5AF64F9183D7
:104B9000808380914B09883031F080914B098F5F81
:104BA00080934B09089580E0FBCF84B7877F84BF53
:104BB0000FB6F894A895809160008861809360009A
:104BC000109260000FBE80E890E00FB6F8948093DA
:104BD0006100909361000FBEF2C2089508958CE3C6
:104BE00094E00E94402E8CE494E081D5E2EEF0E067
:104BF00080818460808308958CE494E065D68CE3A2
:104C000094E00DC7DF92EF92FF920F931F93CF9323
:104C1000DF937B01E9018091490981112BC075DF88
:104C2000DD24D394D0924909009761F098838A8358
:104C300082E0F701808388E090E0F801918380832F
:104C400080E010C0BE016F5F7F4FAE01CE010296C3
:104C50000E948A0CF701D08283E090E0F8019183F2
:104C6000808381E0DF91CF911F910F91FF90EF90B2
:104C7000DF90089518821A8210924909D9CF0895B9
:104C800080914A0490914B04009729F001979093EA
:104C90004B0480934A04089508958CE494E0B0D5C1
:104CA0008CE494E0C3D58F3F11F00E94860A8CE318
:104CB00094E0F9D701C5292F332723303105D1F0EE
:104CC00070F42130310551F12230310561F190E06D
:104CD00080E030E020E0FA01318320830895213222
:104CE000310531F12232310591F789E790E02CE46A
:104CF00035E0F1CF99278130910569F0009729F0CF
:104D0000029729F7E9E8F4E002C0E7EDF4E08491C6
:104D100090E09F01E0CFEBEBF4E0F9CF82E190E08F
:104D20002AE335E0D8CF8FE590E02BED34E0D3CF08
:104D300089E090E02AE235E0CECFAF92BF92CF92E9
:104D4000DF92FF920F931F93CF93DF936C01EB01E0
:104D50008A01C6D1F82E811123C00115110539F041
:104D6000F80180819181C81BD90BC80ED91EB12CC6
:104D7000A12C2097A9F08091E80085FD21C08091A9
:104D8000E8008E778093E80001151105A1F0F80185
:104D900080819181A80EB91EB182A08285E0F82E93
:104DA0008F2DDF91CF911F910F91FF90DF90CF90CA
:104DB000BF90AF90089594D18823D9F2F82EF0CF08
:104DC000F60181916F018093F1002197FFEFAF1AF7
:104DD000BF0ACFCFFC0180917009909171098617AD
:104DE0009707A0F06115710529F49091E8009E776E
:104DF0009093E80090E06115710551F4911108C09D
:104E00008091E80082FF34C080E00895BC01F2CFB9
:104E1000809169098823C1F18530C1F18091E80052
:104E200083FD30C08091E80082FDEACF8091E800E8
:104E300080FFE1CF8091F3002091F200382F6115BF
:104E4000710519F02830310558F091E0283031050E
:104E500009F090E02091E8002E772093E800CBCF76
:104E600081918093F100615071092F5F3F4FE7CF2F
:104E700080916909882341F0853041F08091E800F4
:104E800083FFBECF81E0089582E0089583E0089516
:104E9000FC016115710529F49091E8009B779093CE
:104EA000E8006115710531F48091E80080FF1EC0B3
:104EB00080E0089580916909882311F18530E1F03F
:104EC0008091E80083FD1AC08091E80082FFE9CF5D
:104ED0008091F3002091F200382F232BE9F280918A
:104EE000F10081936150710999F7D6CF80916909DA
:104EF000882331F08530C1F683E0089581E008957C
:104F000082E00895FC0180917009909171098617E3
:104F10009707A0F06115710529F48091E8008E775C
:104F20008093E80090E06115710551F4911108C07B
:104F30008091E80082FF35C080E00895BC01F2CF87
:104F4000809169098823C9F18530C9F18091E80011
:104F500083FD31C08091E80082FDEACF8091E800B6
:104F600080FFE1CF8091F3002091F200382F61158E
:104F7000710519F02830310558F091E028303105DD
:104F800009F090E08091E8008E778093E800CBCF25
:104F900084918093F1003196615071092F5F3F4FEA
:104FA000E6CF80916909882341F0853041F08091F6
:104FB000E80083FFBDCF81E0089582E0089583E09B
:104FC0000895982F973028F08F708093E90081E042
:104FD00008959093E900242F762F50E0981731F030
:104FE0007091EC002091ED005091F00021FD02C085
:104FF0009F5FE8CF3091EB003E7F3093EB00309124
:10500000ED003D7F3093ED003091EB003160309347
:10501000EB007093EC002093ED005093F000209192
:10502000EE0027FDE5CF80E008950F931F93CF9307
:10503000DF93062FEC0110E0101302C081E00BC0DB
:105040009881911103C01F5F2596F6CF892F8F702D
:10505000873030F080E0DF91CF911F910F9108955C
:105060002C8142E0223008F046E0E981FA8168E0D4
:1050700070E020E06E177F0780F02295207F422BA2
:105080006B8120E4629FB0011124991F9927991F19
:10509000692B97DF8111D7CFDDCF2F5F660F771F89
:1050A000E9CF80916A0987FF13C08091E80082FFF1
:1050B00006C08091E8008B778093E80004C080915F
:1050C00069098111F2CF0895809169098823D9F384
:1050D0008091E80080FFF8CF8091E8008E77ECCFD8
:1050E0002091E4003091E50085E6A9019091EC0063
:1050F00090FF06C09091E80090FF06C080E0089500
:105100009091E80092FDFACF90916909992389F076
:10511000953089F09091EB0095FD0FC02091E4004F
:105120003091E5004217530709F38150F1F684E00E
:10513000089582E0089583E0089581E008950F9333
:105140001F93CF93DF934BD052D0C8EDD0E088812E
:105150008F77888388818068888388818F7D888322
:1051600019BC109269091092650910926709109292
:10517000660900EE10E0F80180818B7F80838881D2
:105180008160888342E060E080E01BDFE1EEF0E0D8
:1051900080818E7F8083E2EEF0E080818160808379
:1051A000808188608083F80180818E7F8083888100
:1051B00080618883DF91CF911F910F910895E8ED71
:1051C000F0E080818F7E8083E7EDF0E08081816078
:1051D000808384E082BF81E080936809B0CFE8EDEE
:1051E000F0E080818E7F80831092E200089510921B
:1051F000DA001092E10008951F920F920FB60F92FD
:1052000011242F933F934F935F936F937F938F93CB
:105210009F93AF93BF93EF93FF938091E10082FF41
:105220000AC08091E20082FF06C08091E1008B7F7E
:105230008093E10025DD8091DA0080FF17C0809126
:10524000D80080FF13C08091DA008E7F8093DA004F
:105250008091D90019BC80FF8CC082E089BD09B45F
:1052600000FEFDCF81E080936909B7DC8091E10009
:1052700080FF18C08091E20080FF14C08091E2009E
:105280008E7F8093E2008091E20080618093E20053
:105290008091D80080628093D80019BC85E080930B
:1052A000690909D28091E10084FF27C08091E20062
:1052B00084FF23C019BC82E089BD09B400FEFDCF84
:1052C0008091D8008F7D8093D8008091E1008F7EFF
:1052D0008093E1008091E2008F7E8093E2008091D4
:1052E000E20081608093E20080916509882309F4DF
:1052F00044C084E080936909DED18091E10083FF9E
:1053000027C08091E20083FF23C08091E100877F66
:105310008093E10082E08093690910926509809191
:10532000E1008E7F8093E1008091E2008E7F809388
:10533000E2008091E20080618093E20042E060E060
:1053400080E03FDE8091F00088608093F000B3D170
:10535000FF91EF91BF91AF919F918F917F916F914D
:105360005F914F913F912F910F900FBE0F901F9023
:1053700018951092690932DC79CF8091E30087FD9E
:1053800002C081E0B7CF83E0B5CF1F920F920FB676
:105390000F9211242F933F934F935F936F937F93BB
:1053A0008F939F93AF93BF93CF93EF93FF93C0914E
:1053B000E900CF708091EC001092E9008091F0003C
:1053C000877F8093F00078941BD01092E900809141
:1053D000F00088608093F000C093E900FF91EF91A6
:1053E000CF91BF91AF919F918F917F916F915F917D
:1053F0004F913F912F910F900FBE0F901F901895D6
:105400001F93CF93DF93CDB7DEB7AA970FB6F8946B
:10541000DEBF0FBECDBF8AE699E02091F100FC010E
:105420002193CF01F9E082379F07B9F7E5DB80913F
:10543000E80083FF11C090916A0980916B09853063
:1054400009F4C3C008F5813009F48CC0882309F43D
:1054500061C0833009F486C08091E80083FF0AC0F0
:105460008091E800877F8093E8008091EB00806264
:105470008093EB00AA960FB6F894DEBF0FBECDBFA7
:10548000DF91CF911F910895883009F4D5C08930FC
:1054900009F4DFC0863001F790589230E8F6809129
:1054A0006C0990916D098C3D23E0920709F0AFC023
:1054B00083E08A838AE289834FB7F894DE011396EA
:1054C00020E03EE051E2E32FF0E050935700E491FA
:1054D00020FF03C0E295EF703F5FEF708E2F90E0EA
:1054E000EA3008F492C0C7968D939D932F5F2431C4
:1054F00051F74FBF8091E800877F8093E8006AE210
:1055000070E0CE01019666DC8091E8008B77809395
:10551000E800A2CF903899F0923809F09DCF8091A1
:105520006E098F70873008F097CF8093E9008091E3
:10553000EB0085FB882780F91092E90006C0809176
:10554000660990916709911182609091E800977FB8
:105550009093E8008093F1001092F1008091E800B0
:105560008E77A5C0992309F492C0923009F074CFC8
:1055700090916C09911196C090916E099F702FEFD8
:10558000290F263008F068CF9093E9002091EB00B6
:1055900020FF88C0833031F48091EB0080628093DB
:1055A000EB0080C08091EB0080618093EB0021E0F4
:1055B00030E001C0220F9A95EAF72093EA0010929A
:1055C000EA008091EB008860EACF911145CF1091FD
:1055D0006C091F778091E3008078812B8093E30032
:1055E0008091E800877F8093E8005BDD8091E80090
:1055F00080FFFCCF8091E30080688093E30082E02D
:10560000111183E08093690927CFC0966DCF609117
:105610006E0970916F09AE014F5F5F4F4CDBBC01AB
:10562000892B09F419CF9091E800977F9093E800B7
:1056300089819A8167DC68CF903809F00DCF80911D
:10564000E800877F8093E800809165098093F100EE
:1056500085CF911101CF90916C09923008F0FCCE6A
:105660008091E800877F8093E8009093650919DDB9
:1056700080916509882311F084E005C08091E300E2
:1056800087FDFACF81E080936909A9DAE5CE909190
:105690006C09913009F0E0CE91E0833009F090E0A0
:1056A000909367091092E9008091E800877F8093CA
:1056B000E800F7DCD1CE0895CF9380916909882363
:1056C00091F0C091E900CF708091EC0080FD0DC099
:1056D00080E0C82B1092E9008091E80083FD90DE05
:1056E000CF70C093E900CF91089580E8F2CFCF93B7
:1056F000DF93EC01FC0170968BE0DF011D928A952F
:10570000E9F782E08C83898783E08E8761E0CE01B0
:1057100001968BDC882361F061E0CE01069685DC82
:10572000882331F061E0CE010B96DF91CF917DCCE3
:1057300080E0DF91CF910895CF93C62F2091690922
:105740002430F9F4FC014489558966897789452B11
:10575000462B472BB1F081818F708093E9008091B7
:10576000E80085FF05C0C093F10080E0CF91089567
:105770008091E8008E778093E800B2DC882399F36B
:10578000F5CF82E0F3CFCF93C82FFB01682F84853C
:105790009585D2DF811104C08C2F90E0CF910895C0
:1057A0008FEF9FEFFBCF20916909243039F5FC0181
:1057B0004489558966897789452B462B472BF1F01B
:1057C00081818F708093E9009091F3008091F200C5
:1057D000892B11F480E008959091E8008091E80011
:1057E0008E778093E80095FDF5CF7ADC811107C0B4
:1057F0009091E8009E779093E800089582E00895E4
:1058000020916909243089F4FC014489558966890D
:105810007789452B462B472B41F021812F70209310
:10582000E9002091E80020FDBECF0895209169098C
:10583000243019F08FEF9FEF0895FC0144895589BA
:1058400066897789452B462B472BA1F386818F707C
:105850008093E9008091E80082FFECCF9091F30003
:105860008091F200892B79F08091F10090E03091E5
:10587000F3002091F200232B29F42091E8002B77EC
:105880002093E80008958FEF9FEFF1CFFC0184850E
:105890009585CCDF97FF02C08EEF9FEF0895FB0147
:1058A0002EE0DB011D922A95E9F723E0238323EC08
:1058B0003BE23187208726E43CE2338722879587C5
:1058C0008487089508950895CF93DF93EC01809124
:1058D000E80083FF10C0288180916E0990916F09C4
:1058E0002817190641F480916B098132E1F030F4F8
:1058F000803209F44DC0DF91CF910895823209F4CE
:1059000079C08332C1F780916A098132A1F7809111
:10591000E800877F8093E800C4DB60916C09CE01CA
:10592000DF91CF91D0CF80916A09813A21F78091A0
:10593000E800877F8093E8008091E80080FFFCCF3B
:105940008C899D89AE89BF898093F100492F5A2F98
:105950006B2F77274093F100AD016627772740939F
:10596000F1008B2F9927AA27BB278093F100888D00
:105970008093F100898D8093F1008A8D8093F100EE
:105980008091E8008E778093E800DF91CF9189CBFA
:1059900080916A09813209F0AECF8091E800877F5B
:1059A0008093E8008091E80082FF1FC03091F100F1
:1059B0002091F1009091F1008091F1003C8B2D8BB2
:1059C0009E8B8F8B8091F100888F8091F100898F61
:1059D0008091F1008A8F8091E8008B778093E800B6
:1059E00060DBCE01DF91CF916DCF8091690981118C
:1059F000D9CF81CF80916A09813209F07CCF809123
:105A0000E800877F8093E8004CDB80916C099091DF
:105A10006D09998B888BCE01DF91CF913DC96F9233
:105A20007F928F929F92AF92BF92CF92DF92EF922E
:105A3000FF920F931F93CF93DF9300D00F92CDB7B8
:105A4000DEB77C01CDB6DEB68091E80083FF15C0DD
:105A5000F701208180916E0990916F09281719062E
:105A600061F480916B09833009F4ADC0E8F48130B2
:105A700009F459C0823009F4EDC00FB6F894DEBEC7
:105A80000FBECDBE0F900F900F90DF91CF911F9161
:105A90000F91FF90EF90DF90CF90BF90AF909F90CD
:105AA0008F907F906F9008958A3009F4B9C08B3041
:105AB00009F4A2C0893009F780916A098132E9F6B8
:105AC0008DB69EB6009170091091710970906C09A5
:105AD00060906D098DB79EB7801B910B0FB6F8943F
