:1000000000800020BD010000410800000D08000034
:100010000D0800000D0800000D0800000D0800008C
:100020000D0800000D0800000D0800004108000048
:10003000410800000D08000081400000C942000096
:10004000410800004108000041080000410800008C
:10005000410800004108000041080000410800007C
:10006000410800004108000041080000410800006C
:10007000410800004108000041080000410800005C
:10008000410800004108000041080000410800004C
:10009000410800004108000041080000410800003C
:1000A000410800004108000041080000410800002C
:1000B000410800004108000041080000410800001C
:1000C000410800004108000041080000410800000C
:1000D00041080000410800004108000041080000FC
:1000E00041080000410800004108000041080000EC
:1000F00041080000BD18000041080000051F000075
:10010000410800005D230000410800004108000094
:1001100041080000410800004108000041080000BB
:1001200041080000410800004108000041080000AB
:10013000410800004108000041080000410800009B
:10014000410800004108000041080000410800008B
:10015000BD430000D1430000E5430000F943000027
:100160004108000005270000410800004108000088
:10017000410800004108000041080000410800005B
:10018000410800004108000041080000410800004B
:10019000410800004108000041080000410800003B
:1001A000410800004108000041080000410800002B
:1001B0004108000041080000793F0000574B4CF215
:1001C000205210B51A804DF628121A8000BF00BFC9
:1001D00000F039FB524B4FF010621A60514A9A609E
:1001E000514ADA60514A136813F4807301BF5049D1
:1001F0000B604FF4A85313604E4B1A78110748BF99
:100200001A784D4944BF42F008021A704B4B2A221B
:100210001A704B4A4B4B8B4277D34B4B4B4A0021C6
:10022000934277D34A4A4B4C0023114654F823009B
:1002300042F8230001336F2BF8D1474B474A802007
:1002400003F8010B9342FBD1454B1960454B8A22C1
:100250001A70A3F5805324225A70A0221A709A793A
:100260009207FCD59A79D406FCD43F4B19469A796B
:1002700002F00C02082AFAD103221A7140225A71A4
:100280008B799806FCD5384B9A795106FCD5374ABC
:10029000374911600221516020221A70324A937945
:1002A00003F00C030C2BFAD1324B334A1A60334B58
:1002B0004BF67F321A6000225A60072243F8042C62
:1002C0002F4AC3F80C2D62B600F0CEFF184B1B6806
:1002D000DA0705D52B4800F0E1FC2B4B2B4A1A60BE
:1002E0002B4B1B785B0609D5274C284B22689A427A
:1002F00004D1244800F0D2FC0023236006F0B6FAB3
:1003000000F0A8FA05F070F9FEE752F8040F43F880
:10031000040B80E743F8041B82E700BF0E20054072
:1003200030800440823F04000100002B10D00340C5
:1003300014D0034002D007409092FF1F00E0074016
:10034000DCA800002C8CFF1F9092FF1F4096FF1F1F
:100350000082FF1F0000000000E400E05FE400E016
:1003600008ED00E000500640004006404480044094
:100370000000131104800440C010050014E000E0E8
:1003800000002020000000001CE00340A5C3945A98
:1003900000F00740FFFFFFFFFFFFFFFFFFFFFFFF32
:1003A000FFFFFFFFFFFFFFFFFFFFFFFFFFFFFFFF5D
:1003B000FFFFFFFFFFFFFFFFFFFFFFFFFFFFFFFF4D
:1003C000FFFFFFFFFFFFFFFFFFFFFFFFFFFFFFFF3D
:1003D000FFFFFFFFFFFFFFFFFFFFFFFFFFFFFFFF2D
:1003E000FFFFFFFFFFFFFFFFFFFFFFFFFFFFFFFF1D
:1003F000FFFFFFFFFFFFFFFFFFFFFFFFFFFFFFFF0D
:10040000FFFFFFFFFFFFFFFFFFFFFFFFDEF9FFFF23
:1004100010B5054C237833B9044B13B10448AFF33E
:1004200000800123237010BD9092FF1F0000000088
:10043000E0A8000008B5034B1BB103490348AFF324
:10044000008008BD000000009492FF1FE0A800009B
:10045000F0B5384A384B11680906FCD4196811F018
:100460008001F8D172B635480378002B60D0344B48
:10047000344C1A6804330C341B6854F80C7C54F860
:10048000086C54F8045C246813443B4433442B4404
:1004900023442D4A2D4CC3F34E0343F40043136011
:1004A0002B4B1A6804330C341B6854F80C7C54F83A
:1004B000086C54F8045C246813443B4433442B44D4
:1004C0002344244A244CC3F34E0343F400431360F3
:1004D000224B1A6804330C341B6854F80C7C54F813
:1004E000086C54F8045C246813443B4433442B44A4
:1004F00023441B4A1B4CC3F34E0343F400431360D5
:10050000194B1A6804330C341B6854F80C7C54F8EB
:10051000086C54F8045C246813443B4433442B4473
:100520002344C3F34E03114A43F4004313600170A4
:1005300062B6F0BD24B0034024B00B40AC92FF1F64
:1005400038B0034040B003402CB0034060B00340DB
:1005500058B0034030B0034040B00B4038B00B40BF
:100560002CB00B4060B00B4058B00B4030B00B408B
:10057000204B21482149602230B51A70204DE122DC
:100580005A702C781F4A03F58E23082C03F10C03B4
:1005900018D10124046013200860146018601A4800
:1005A0001A4943781A4A03B101230B601360697832
:1005B000184A194B012910D88021116019600123B4
:1005C000037030BD0A2C01D13924E3E70C2C0CBF99
:1005D00035243D2404601220DEE7042901D884215B
:1005E000EBE7082901D88521E7E7102994BF862188
:1005F0008721E2E70040074008B003400CB0034009
:10060000108DFF1F08B00B40AC92FF1F20B00340BD
:1006100020B00B4024B0034024B00B400D4B5A785F
:1006200058B1AAB9012159701B7823B10A4B1A603D
:1006300003F500231A60FFF79BBF4AB158701B787F
:10064000002BF8D0044B186003F500231860F2E784
:10065000704700BFAC92FF1F24B003400C2810B4B9
:1006600017D9102828BF10201023DCB20E4A0F49DA
:10067000201A90700878984214D013780C702BB11F
:100680000B4A0023136002F50022136010BCFFF731
:100690006FBF0A2804D808288CBF0A230823E4E780
:1006A0000C23E2E710BC7047AC92FF1F108DFF1FB8
:1006B00024B0034010B5144B1B7804460BB1FFF770
:1006C000C7FE012C114A04D800231360104A53704E
:1006D00010BD042C0F4903D8042313600B60F5E709
:1006E000082C04D8052313600B600823EEE7102CB8
:1006F00095BF062307231360136095BF0B600B6043
:1007000010232023E2E700BFAC92FF1F24B0034078
:10071000108DFF1F24B00B4028282DE9F04149D847
:10072000254B1D5CFF2D45D0244C23780BB1FFF7E2
:100730008FFE290619D472B6214E01273560E77065
:1007400062B672B633681A0608D51E4B18680023C5
:10075000E37062B6A3781841BDE8F081E378002B1E
:10076000ECD062B604F0D4FFEBE772B6164E174F2A
:1007700005F0400805F03F053368B8F1000F0FD0D1
:1007800023F01003336001233D60237162B672B61B
:100790003B681B0607D50E4B186800232371D8E76A
:1007A00043F01003EEE72379002BE5D062B604F0A6
:1007B000AFFFECE70020CFE794A20000AC92FF1F50
:1007C00000B0034010B003400CB00B4000B00B4031
:1007D00010B00B40094A136843F480531360084B70
:1007E0005A78084B3AB180221A70074B80F30C00FC
:1007F00000B218807047C022F6E700BF2C8004408A
:10080000AC92FF1F21C00C4000C00C4008B50B4D3E
:100810002C462B68580301D501F074FF2368590555
:1008200001D501F04BF823681A0501D501F06AFBE8
:100830002368DB04EDD501F091FDEAE73480044044
:1008400008B5FFF7E3FF024B10221A80704700BF84
:100850000020054070470A4908B50B6858B16A4640
:100860001844A2F58052904207D305F0F9FF0C23FB
:1008700003604FF0FF33184608BD0860FBE700BF78
:10088000148DFF1F002070474FF0FF3070474FF46A
:1008900000534B6000207047012070474FF0FF303D
:1008A0007047FEE7FEE70078B0FA80F04009704735
:1008B000012303707047FEE7EFF31380A0B9EFF355
:1008C00010839BB9EFF305825AB10F2A01D9084B67
:1008D000D35CEFF3118212B1934228BF134618463E
:1008E00070474FF48073F4E74FF0FF30704700BF5C
:1008F000F0E300E070B50026B0FBF2F302FB130555
:10090000ECB2092D94BF30343734E4B28C5518461C
:100910000BB10136F0E78A19481E5370F41AA3424E
:1009200001DB084670BD10F8014F157805700133E2
:1009300002F80149F2E7031E10B50C4603DBBDE8DF
:100940001040FFF7D7BF2D2001F8010B5842FFF7E9
:10095000D1FF204610BD2DE9FF4781EAE1758846A9
:10096000A5EBE1750146074691461C4605F014FFCC
:10097000A0B30021384605F0E7FE002814BF04208C
:100980000320A84208DAB8F1000FA5EB000504DA4D
:100990006019202384421BD1002538464FF07E5336
:1009A00063F31E00002105F0CFFE10B12D2323704C
:1009B000013441234E226370E31C2270A270581947
:1009C0002022834207D10023037004B0BDE8F087E2
:1009D00004F8013BDEE703F8012BF2E727F00046BD
:1009E0007F49304605F0D8FEA0BB30467C4905F073
:1009F000B5FE064670BB0021384605F0A5FE00286E
:100A000040F0E980032D23DD0326B8F1000FA5EBAC
:100A1000060604DA26442023B44216D1002600211B
:100A2000384605F091FE10B12D232370013449237F
:100A300023704E2346226370E31CA2709819202273
:100A40008342C0D003F8012BFAE704F8013BE3E747
:100A50000646E4E702AB01AA4946384605F0F3FE34
:100A60000646B9F1000F09D1019B3BB902785D4BF5
:100A70005D4E342A98BF1E4601230193019B5B42C1
:100A80009945BCBF574EC9F100033046B8BF01932A
:100A900006F091F8019B83420546B8BF451C002B28
:100AA00035D10135029800B10135A8EB0503002BC3
:100AB00004EB05025ADD1A44E118202723468B4235
:100AC00051D110B12D2119700133019F002F4FD149
:100AD000B9F1000F06D01946302001F8020B2E2084
:100AE00058700B462E279A4262D8B8F1000F0ADAE6
:100AF000454469421A465D1B2026A81A002867DC77
:100B00000029A8BF5B1800221A7020465DE7C9DAE9
:100B1000B9F1000FC6D04B44984209F10205C1D982
:100B20004E46DFF8C8A005E03846514605F06EFC99
:100B3000013E0746002EF7DCB9F1000FACBFA9EB70
:100B40000901494602AB03AA384605F07CFE019B29
:100B5000039A09F10101D21A8A4208BF01330646FD
:100B600008BF01939EE703F8017BA8E72346A8E7A7
:100B7000B8DAB9F1000FB5D01946302001F8020BF0
:100B80004FF02E0C83F801C0A7EB010E0B464FF07F
:100B9000000C13EB0E0F06D4CB1BBCF1000FA1D041
:100BA000002101919EE703F8010B4FF0010CF0E7E3
:100BB000581C16F8011B1970824207D0019901399F
:100BC000019109B9981C5F7003468CE713468CE7C6
:100BD00002F8016B91E7042D7FF726AF042614E796
:100BE000FFFF7F7F1DA300001FA300000000204126
:100BF000704700F14040A0F592237C2B12D9A0F55C
:100C000094237C2B10D9A0F596237C2B0ED9A0F52C
:100C100098237C2B0CD9A0F59A207C28054888BF06
:100C200000207047044870470448704704487047E4
:100C300004487047188DFF1FC08DFF1F708DFF1F68
:100C4000408DFF1F208DFF1F1030024B43F82010F6
:100C5000704700BF0082FF1F08B50B4B03EBC000BD
:100C600042681046FFF7C5FF68B172B6136823F0FB
:100C7000877323F4803343F08073136002F07C02A7
:100C8000024B835062B608BD24A30000F10B0000A4
:100C9000014B1868704700BF00D00340044B054962
:100CA00000221A600A60044A106010221A6070471D
:100CB00014D0034004D0034000D00340002810B5F6
:100CC00015DB03024FF48072B3F5004F02F1FF31E0
:100CD00004D30129A3EB00040A4606D11B0A013AFA
:100CE00043EA02230C4A136010BD2346ECE76FF081
:100CF000FF0343434FF48072B3F5014F02F1FF311C
:100D000004D3012900EB03040A4603D11B0AC3F5EF
:100D10008073E4E72346EFE70CD0034048B1102886
:100D2000034628BF1023044A92F8E00082F8E0301E
:100D300070470123F7E700BF188DFF1F2DE9F84327
:100D4000884605462D49404605F0FEFC2C4B002800
:100D500047F6122612BF022701271E4600244FF035
:100D60005E5926FA04F005F0F9FA494605F04EFB03
:100D70000146404605F0FCFC10B90134072CF0D1C7
:100D800026FA04F005F0EAFA414605F0F3FB4FF0CD
:100D90007C5105F031FA05F015FD4FF6FF739842CE
:100DA00028BF1846EB1E012B0AD8164B1649002205
:100DB0001A600A60154A106044EAC7041C6010E01B
:100DC000172D10D8124BEB40DB4313F001030CD16D
:100DD000104A114913600B60104B44EAC7041860B5
:100DE0001460BDE8F883202D01D0192DF9D10C4BEA
:100DF0000C4900221A600A600B4ADCE7001BB7406E
:100E0000006CDC0200900340049003400890034013
:100E10006006F00000800340048003400880034027
:100E200000800B4004800B4008800B40212810B547
:100E300009D80D4B53F8302092F880423CB1012381
:100E400011B182F8803010BD82F80031FBE703EB6E
:100E5000C0035B681A6819B142F003021A60F2E736
:100E600022F00202FAE700BF24A3000021289FBF5E
:100E7000034B53F83030012283F88021704700BFC4
:100E800024A3000021289FBF044B53F8303093F86F
:100E90000002C0B288BF0020704700BF24A300003A
:100EA000212817D8144A02EBC00301295B6852F8C5
:100EB000300001D004290ED1012280F880224FF4A5
:100EC000A2721A601A6804290CBF42F0200222F0B4
:100ED00020021A607047002280F8802211B94FF476
:100EE0008072F6E7022902D140F20312F1E70329EA
:100EF00008BF4FF48172ECE724A30000212870B5ED
:100F00000E4633D8042A31D8DFE802F033353103F6
:100F1000370009251A4B03EBC0035C68216811F404
:100F2000E06101D1FFF7BCFF164B174AC3F89C21C3
:100F3000164AC3F8A021164AC3F8A421154AC3F8DB
:100F4000A8212046144AC3F8AC21FFF752FE68B12D
:100F500072B6236823F47023236043F0807204F098
:100F60007C0342EA0545C650256062B670BD0A257D
:100F7000D0E70825CEE70C25CCE70B25CAE700BF54
:100F800024A300000082FF1FDD8CFF1FB18CFF1F18
:100F9000858CFF1F598CFF1F2D8CFF1F38B5434BCD
:100FA0002828044693F8E0300ED10B2B07D8C3F164
:100FB0000C0399400846BDE83840FFF70BBC0C2BEA
:100FC0001CBF0C3B1941F5E70125002905FA03F286
:100FD00008DC0021FFF72AFF20460121BDE8384048
:100FE000FFF75EBF914201D32946F3E7C21ED0B29C
:100FF000012818D82E48006800FB011020FA03F3DE
:101000001D2A4DD8DFE802F03A40362A4C4C222601
:101010004C4C4C4C4C4C4C4C4C2E32171E4C484CAF
:101020004C4C4C4C4C44202C01D0192C01D1214863
:10103000E1E72148DFE7214A1360214B40F24442B7
:101040001A6038BD1F4A13601F4BF7E71F4A136031
:101050001F4BF3E71F4A13601F4BEFE71F4A136054
:101060001F4BEBE71F4A13601F4BE7E71F4A136054
:101070001F4BE3E71F4A13601F4BDFE71F4A136054
:101080001F4B4FF45172DBE71E4A13601E4BF8E70B
:101090001E4A13601E4BF4E71E4A13601E4BF0E716
:1010A0007F29D4BF00210121204693E7188DFF1F1F
:1010B0000890034008800B400880034010800340E4
:1010C00004B004401880034008B00440208003406E
:1010D0000CB004402880034010B00440308003402E
:1010E00010C004403880034014C0044040800340D6
:1010F00018C00440488003401CC0044010900340C6
:1011000030900440189003403490044010800B400D
:1011100048A0044018800B404CA004402DE9F04149
:1011200007460E4690460825012408EA0401384681
:10113000FFF77CFE01213046FFF778FE0021FFF724
:1011400075FE6400013DE4B2EFD1BDE8F0812DE908
:10115000F04107460E4690460824802508EA05011E
:101160003846FFF763FE01213046FFF75FFE00219E
:10117000FFF75CFE013C4FEA5505EFD1BDE8F08179
:1011800012B91A46FFF7CABF1A46FFF7E0BF2DE9AA
:10119000F04180460F4608260025012438460121EB
:1011A000FFF744FE4046FFF76DFE00B125430021E6
:1011B0003846FFF73BFE6400013EE4B2EED128461C
:1011C000BDE8F0812DE9F04180460F460825002456
:1011D000802638460121FFF729FE4046FFF752FEE0
:1011E00000B1344300213846FFF720FE013D4FEAAD
:1011F0005606EED12046BDE8F0810AB9FFF7C7BF19
:10120000FFF7E0BF72B60B4B0B4A0C491B68126824
:10121000096862B6490102D5322B88BF0132C3F595
:101220003B4330207F33B3FBF0F34FF47A7000FB85
:101230000230704718E000E0B492FF1F04ED00E0B8
:1012400038B50446FFF7DEFF054624B938BD013C3A
:10125000FCD005F57A75FFF7D5FF401BB0F57A7F16
:10126000F5D204F055FAF6E7214B4FF4000210B521
:101270001A604FF080721A604FF000721A604FF0DF
:1012800080621A604FF000621A601A4B1A4A1B4CB7
:1012900000204BF6FF71186059602823136093609B
:1012A0001361936113629362136393630922226053
:1012B00004F58054043420606160A360236144F825
:1012C000042C04F5FE2420600D4801600D490B60DC
:1012D0008B600D4B1A60FFF74BF91920FFF7B0FF39
:1012E00001F088FF40F21310BDE81040FFF7A8BFDF
:1012F00008E100E0048003400C80034000800340CC
:1013000008800B400C800B4000800B4070B50646F7
:10131000C1EBC104337853B9337863B1FFF772FF7F
:101320000546337853B9FFF76DFF401B02E0013CDF
:10133000F0D1002070BD013CEED1FAE7013CF0D1C4
:10134000F7E770B50646C1EBC104337853B1337883
:1013500063B9FFF757FF0546337853B1FFF752FFE4
:10136000401B02E0013CF0D1002070BD013CEED1F9
:10137000FAE7013CF0D1F7E721280BD8064B53F8E8
:10138000300000F5007011B11146FFF7BFBF1146E4
:10139000FFF7D7BF0020704724A30000214A13683D
:1013A00043F480631360204B00221A705A709A70C5
:1013B000DA701A715B793BB3152B2AD01B4B1B7863
:1013C000012B28D0052B2BD02028194B38BF2020EB
:1013D000C0F344321A70C0F347125A7000F01F0075
:1013E0000422022198729A70D9745A7588221A744C
:1013F0003C22DA700F4B40221A706FF44A72134489
:101400004FF400521A6070470B4B40F213321A60CF
:10141000D4E70A4BF9E70A4B4FF451721A60D3E74D
:10142000084BF9E734800440B892FF1FF98DFF1F85
:1014300000A006402DE400E040A0044018C0044095
:1014400044A004401CC00440124B9A7800F00301F1
:1014500002F0EC020A43410748BF42F010029A70C2
:1014600000F00F02042A02BF9A7942F040029A71FA
:101470005A79C30602F0EF02064B48BF42F0100251
:101480005A719A79810602F0EF0248BF42F01002C9
:101490009A71704700A0064038B51C4B1B685B056D
:1014A00021D51B4D2C462B7903F0FF02E3B9194BD4
:1014B0004FF400511960184BDA706B79BBB1152BE2
:1014C0001AD0164B1B7803F07F03012B16D0052B87
:1014D00019D0114B1A79DB79002323706370A3684C
:1014E0000BB101221A7038BD04F012F9DBE70C4B86
:1014F00040F203121A60E4E70A4BF9E70A4B40F2A4
:1015000003121A60E5E7094BF9E700BF3480044095
:10151000B892FF1F84E100E000A00640F98DFF1F94
:1015200040A0044018C0044044A004401CC0044033
:1015300070B50A4D04462B7903F0FF06002BFAD153
:1015400001212046FFF7ACFC31462046FFF76EFC38
:10155000034B53F83430EB6070BD00BFB892FF1FEF
:1015600024A3000010B509B140F08000144C23788A
:10157000834214D0134A126852050FD503F07F033B
:10158000012B0DD0052B0FD0002900F07F0214BFD6
:1015900060234423012A09D0052A0CD0207010BDF5
:1015A000094B00221A60EFE7084BFAE7064A43F4BA
:1015B00040731360F2E743F44073044AF9E700BF55
:1015C000F98DFF1F3480044044A004401CC0044037
:1015D0000E4B5A7982420AD00D490968490505D552
:1015E00032B1152A07D050B115280DD05871704767
:1015F00008490A60F7E7084A00211160F3E7054A45
:1016000040F213311160F1E7034AF9E7B892FF1F86
:101610003480044040A0044018C0044038B50D4B4D
:101620001B6813F480634FF0000410D021280A4D8A
:101630000AD80A4B012153F83030AB60FFF730FC79
:10164000AB6801201C7038BDAC602046FBE7184633
:10165000F9E700BF34800440B892FF1F24A30000C4
:101660000D4B1B6813F4806314D012280B4B09D167
:101670000B4A40F2023111605A7B42F001025A7368
:1016800001207047142801D1064AF2E75A7B02F084
:10169000FE025A73002070473480044000A00640C8
:1016A0000CA0044014C00440F8B51B4B1B685A053D
:1016B000064617D5194CE3680BB101221A70A578BC
:1016C000174F0135402D28BF0025E378AB420AD0E3
:1016D0006319F6B21E7401232371114BEDB2BC22C3
:1016E000A570DA70F8BDFFF7E7F840280EDC3B790B
:1016F0001B06EAD5E3780133402B28BF0023E2180C
:10170000DBB2127CD2B2FA71E370DEE7FF28DCDDD7
:1017100003F0FEFFD9E700BF34800440B892FF1FFA
:1017200000A0064000F00F00092894BF3030373089
:10173000FFF7BABF224B1B685A052DE9F0410DD5C2
:10174000204CE3680BB101221A70DFF87C8006465A
:101750004718BE4204D31C4BBC22DA70BDE8F081AE
:10176000A578E3780135402D28BF0025AB4219D17B
:10177000BC2388F80330FFF79FF840281BDC98F85B
:1017800004301B060BD5E3780133402B28BF002320
:10179000E218DBB2127CD2B288F80720E370E3785B
:1017A0009D42E8D0631916F8012B1A74EDB201239B
:1017B0002371A570CDE7FF28F1DD03F0A9FFEEE767
:1017C00034800440B892FF1F00A0064010B5034CBF
:1017D000237903B910BD03F09BFFF9E7B892FF1F0F
:1017E000054B9878DA78C0B2D3B298422CBF3F3319
:1017F00003F1FF33181A7047B892FF1F044A10789C
:10180000C3B25078C0B2834238BF4033181A704711
:10181000B892FF1F10B50F4C23786278D9B2D2B2BC
:10182000914214D0531C402B28BF0023E21892F899
:101830005000DAB26270A268C0B23AB18B4288BF7F
:101840004031CB1A1A2B01DC0023137010BD4FF06E
:10185000FF30FBE7B892FF1F084A11785378DBB2DC
:10186000994208D00133402B28BF0023134493F83A
:101870005000C0B270474FF0FF307047B892FF1F62
:101880000B4B1B685B0512D50A4BDA7802F0CB02D2
:10189000DA7040225A74DA7842F03402DA70064B79
:1018A0005A78D2B21A709B680BB100221A70704736
:1018B0003480044000A00640B892FF1F70B5344841
:1018C000037913F0300F09D072B6837D03F0FF0562
:1018D000002B35D1C3794023437462B62C4AD078AB
:1018E000C0B206061DD513791D061AD529498D7873
:1018F000CB78EDB2DBB2AB420BD00133402B28BF2B
:1019000000231479CC18247CE4B2D471147D072C04
:10191000F1D9DBB2CB701E4B1A79140644BF7C227E
:10192000DA7041060BD51A4B1A79520607D5194AB7
:1019300000211171D26802B111703C22DA7070BDC1
:1019400062B614490B784A78DBB2D2B25C1C402CE8
:1019500028BF00249442C67918BF0B19F6B21CBFE9
:1019600083F8506023466C1E14F0FF05EED1D8B208
:10197000087089680029B1D0934236BFC2F1400295
:101980009B1A9B18272BC4BF01230B70A6E700BF2F
:1019900000A00640B892FF1F38B5451E15F8014F4C
:1019A00004B938BD0A2C02D10D20FFF77DFE204678
:1019B000FFF77AFEF2E710B504460009FFF7B2FE22
:1019C0002046BDE81040ADE610B50446000AFFF71A
:1019D000F2FF2046BDE81040FFF7EDBF10B504460A
:1019E000000EFFF7E8FF200CFFF7E5FF200AFFF7E6
:1019F000E2FF2046BDE81040FFF7DDBF214A136833
:101A000043F400631360204B00221A705A709A70DE
:101A1000DA701A711D4B1A78092A25D01A2A28D093
:101A20005B780A2B27D01F2B2AD02028184B38BFD1
:101A30002020C0F344321A70C0F347125A7000F0ED
:101A40001F000422022198729A70D9745A75882254
:101A50001A743C22DA700F4B40221A70A3F22B3317
:101A60004FF400421A6070470B4A40F21331116084
:101A7000D6E70A4AF9E70A4B4FF451721A60D4E7E5
:101A8000084BF9E7348004404893FF1FFA8DFF1F8D
:101A900000B006402FE400E00CB0044004D0044045
:101AA00010B0044000D00440124B9A7800F00301BB
:101AB00002F0EC020A43410748BF42F010029A705C
:101AC00000F00F02042A02BF9A7942F040029A7194
:101AD0005A79C30602F0EF02064B48BF42F01002EB
:101AE0005A719A79810602F0EF0248BF42F0100263
:101AF0009A71704700B0064038B51C4B1B681B0537
:101B000022D51B4D2C462B7903F0FF02EBB9194B64
:101B10004FF400411960184BDA70184B1A78092AF3
:101B200016D01A2A19D05B7803F07F030A2B16D03F
:101B30001F2B19D0104B1A79DB79002323706370A7
:101B4000A3680BB101221A7038BD03F0E1FDDAE79A
:101B50000B4A40F203111160E5E70A4AF9E70A4B24
:101B600040F203121A60E5E7084BF9E734800440BD
:101B70004893FF1F84E100E000B00640FA8DFF1F8C
:101B80000CB0044004D0044010B0044000D0044025
:101B900070B50A4D04462B7903F0FF06002BFAD1ED
:101BA00001212046FFF77CF931462046FFF73EF938
:101BB000034B53F83430EB6070BD00BF4893FF1FF8
:101BC00024A3000010B509B140F08000144C6378E4
:101BD000834214D0134A126812050FD503F07F0315
:101BE0000A2B0DD01F2B0FD0002900F07F0214BF4D
:101BF000602344230A2A09D01F2A0CD0607010BD2C
:101C0000094B00221A60EFE7084BFAE7064A43F453
:101C100040731360F2E743F44073044AF9E700BFEE
:101C2000FA8DFF1F3480044010B0044000D00440FF
:101C30000F4B1A7882420CD00E490968090507D566
:101C4000092A07D01A2A09D0092809D01A280CD045
:101C500018707047084A00211160F5E7074AFAE753
:101C6000054A40F213311160F2E7044AF9E700BF78
:101C7000FA8DFF1F348004400CB0044004D00440AF
:101C800038B50D4B1B6813F400634FF0000410D0FF
:101C900021280A4D0AD80A4B012153F83030AB6095
:101CA000FFF7FEF8AB6801201C7038BDAC60204621
:101CB000FBE71846F9E700BF348004404893FF1F54
:101CC00024A300000B4B1B6813F4006310D01728EB
:101CD000094B09D1094A40F2023111605A7B42F0A6
:101CE00001025A73012070475A7B02F0FE025A73B8
:101CF000002070473480044000B0064008B0044023
:101D0000F8B51B4B1B681A05064617D5194CE36836
:101D10000BB101221A70A578174F0135282D28BF65
:101D20000025E378AB420AD06319F6B21E74012392
:101D30002371114BEDB2BC22A570DA70F8BDFEF72D
:101D4000BBFD40280EDC3B791B06EAD5E378013366
:101D5000282B28BF0023E218DBB2127CD2B2FA7122
:101D6000E370DEE7FF28DCDD03F0D2FCD9E700BF3B
:101D7000348004404893FF1F00B00640224B1B688C
:101D80001A052DE9F0410DD5204CE3680BB1012275
:101D90001A70DFF87C8006464718BE4204D31C4BFD
:101DA000BC22DA70BDE8F081A578E3780135282DF2
:101DB00028BF0025AB4219D1BC2388F80330FEF7B9
:101DC0007BFD40281BDC98F804301B060BD5E3781C
:101DD0000133282B28BF0023E218DBB2127CD2B2D9
:101DE00088F80720E370E3789D42E8D0631916F87D
:101DF000012B1A74EDB201232371A570CDE7FF28E2
:101E0000F1DD03F085FCEEE7348004404893FF1FCA
:101E100000B0064010B5034C237903B910BD03F0A0
:101E200077FCF9E74893FF1F054B9878DA78C0B242
:101E3000D3B298422CBF273303F1FF33181A7047EF
:101E40004893FF1F044A1078C3B25078C0B283424F
:101E500038BF4033181A70474893FF1F10B50F4C16
:101E600023786278D9B2D2B2914214D0531C402B5D
:101E700028BF0023E21892F83800DAB26270A26834
:101E8000C0B23AB18B4288BF4031CB1A1A2B01DC69
:101E90000023137010BD4FF0FF30FBE74893FF1F86
:101EA000084A11785378DBB2994208D00133402BAD
:101EB00028BF0023134493F83800C0B270474FF096
:101EC000FF3070474893FF1F0B4B1B681B0512D553
:101ED0000A4BDA7802F0CB02DA7040225A74DA78D0
:101EE00042F03402DA70064B5A78D2B21A709B680C
:101EF0000BB100221A7070473480044000B00640D5
:101F00004893FF1F70B53448037913F0300F09D0A0
:101F100072B6837D03F0FF05002B35D1C3794023D2
:101F2000437462B62C4AD078C0B206061DD5137928
:101F30001D061AD529498D78CB78EDB2DBB2AB42BC
:101F40000BD00133282B28BF00231479CC18247C14
:101F5000E4B2D471147D072CF1D9DBB2CB701E4BE7
:101F60001A79140644BF7C22DA7041060BD51A4B4D
:101F70001A79520607D5194A00211171D26802B1A7
:101F800011703C22DA7070BD62B614490B784A7841
:101F9000DBB2D2B25C1C402C28BF00249442C6792C
:101FA00018BF0B19F6B21CBF83F8386023466C1EAD
:101FB00014F0FF05EED1D8B2087089680029B1D0BD
:101FC000934236BFC2F140029B1A9B18272BC4BF15
:101FD00001230B70A6E700BF00B006404893FF1F27
:101FE000164A136843F480531360154A0023137094
:101FF00053709370D3701371124A40F21331116011
:1020000020284FF45171516038BF20200E4AC0F390
:1020100044311170C0F3471100F01F0051709072ED
:10202000937013742C23D370084B40221A706FF4F2
:102030004B7213444FF400321A60704734800440EE
:10204000C093FF1F08C0044000C0064031E400E018
:10205000124B9A7800F0030102F0EC020A434107A8
:1020600048BF42F010029A7000F00F02042A02BF2B
:102070009A7942F040029A715A79C30602F0EF024F
:10208000064B48BF42F010025A719A79810602F05D
:10209000EF0248BF42F010029A71704700C006403C
:1020A000104B1B68DB0410B517D50F4C227902F0DA
:1020B000FF039AB90D4A0E484FF4003111600D4AE2
:1020C00040F20311D370016041601179D27923701D
:1020D0006370A3680BB101221A7010BD03F018FBE6
:1020E000E4E700BF34800440C093FF1F84E100E0B8
:1020F00008C0044000C0064070B50A4D04462B7964
:1021000003F0FF06002BFAD101212046FEF7C8FE9E
:1021100031462046FEF78AFE034B53F83430EB601D
:1021200070BD00BFC093FF1F24A3000010B509B10C
:1021300040F080000E4B1A78824217D00D4C246874
:10214000E40412D502F07F02082A02BF0A4A0024E2
:102150001460002900F07F010CBF4422602208298E
:1021600002BF054942F440720A60187010BD00BFFA
:10217000FC8DFF1F348004400CC00440704738B50C
:102180000C4B1B6813F480534FF0000410D021282F
:10219000094D0AD8094B012153F83030AB60FEF7E6
:1021A0007FFEAB6801201C7038BDAC602046FBE7A9
:1021B0001846F9E734800440C093FF1F24A30000B1
:1021C0000B4B1B6813F4805310D00E28094B09D118
:1021D000094A40F2023111605A7B42F001025A73FF
:1021E000012070475A7B02F0FE025A7300207047AC
:1021F0003480044000C0064004C00440F8B51B4BC6
:102200001B68DA04064617D5194CE3680BB10122A6
:102210001A70A578174F0135282D28BF0025E378BF
:10222000AB420AD06319F6B21E7401232371114B1D
:10223000EDB2AC22A570DA70F8BDFEF73DFB402888
:102240000EDC3B791B06EAD5E3780133282B28BF47
:102250000023E218DBB2127CD2B2FA71E370DEE73F
:10226000FF28DCDD03F054FAD9E700BF34800440D6
:10227000C093FF1F00C0064038B504464518AC4265
:1022800000D138BD14F8010BFFF7B8FFF7E710B520
:10229000034C237903B910BD03F03AFAF9E700BF04
:1022A000C093FF1F054B9878DA78C0B2D3B298423A
:1022B0002CBF273303F1FF33181A7047C093FF1F59
:1022C000044A1078C3B25078C0B2834238BF40335A
:1022D000181A7047C093FF1F10B50F4C237862780F
:1022E000D9B2D2B2914214D0531C402B28BF002344
:1022F000E21892F83800DAB26270A268C0B23AB15D
:102300008B4288BF4031CB1A1A2B01DC002313709B
:1023100010BD4FF0FF30FBE7C093FF1F084A117854
:102320005378DBB2994208D00133402B28BF0023F9
:10233000134493F83800C0B270474FF0FF30704735
:10234000C093FF1F044B5A78D2B21A709B680BB12E
:1023500000221A70704700BFC093FF1F10B5264BB4
:102360001A7992061ED5254AD97913785078013307
:10237000402BA8BF0023984218BFD018C9B21EBF77
:1023800080F83810D9B21170916859B1D278D2B2B0
:10239000934236BFC2F140029B1A9B18272BC4BF41
:1023A00001230B701448C278D2B213060AD5037900
:1023B0001C0607D511498C78CB78DBB29C4210D132
:1023C0006C23C37051060BD50B4B1A79520607D5F7
:1023D0000A4A00211171D26802B111702C22DA7000
:1023E00010BD0133282B28BF0023CC18DBB2247C7E
:1023F000E4B2C471CB70E5E700C00640C093FF1F94
:102400001FB572B6154B70221A70154A4121117012
:102410000F2102F8011C80221A701A781206FCD5CE
:10242000104B186862B6104B984298BF0A2301AC53
:1024300098BF58430A222146FEF75CFA0B4A002354
:10244000E05C591C20B10A2922F811000B46F7D193
:1024500001335B00137004B010BD00BF00000240E8
:1024600007000240080002407F969800FE8DFF1F83
:10247000431E062B14D872B60A4951F8230068B1DE
:1024800070B4094C058834F81320466841F823607D
:10249000521B24F8132062B670BC704762B67047B6
:1024A000002070473894FF1F1496FF1F013806283C
:1024B0000DD8094B03EB8000C36972B64BB1002005
:1024C0001A885B681044002BFAD162B6704700206E
:1024D00070471846F9E700BF3894FF1F01380628F7
:1024E0000CD872B6074B03EB8000C36943B10020E0
:1024F0005B680130002BFBD162B67047002070474B
:102500001846F9E73894FF1F30B472B6464A13787C
:102510001C0706D5454B196A00295ED0996A002927
:102520006CD05378190706D5404B196C00296FD031
:10253000996C002964D093781B0706D53B4B196E24
:10254000002967D0996E00295CD0D3781D0708D583
:10255000364BD3F8801000295ED0D3F888100029BC
:1025600052D013791C0708D5304BD3F8A01000299E
:1025700054D0D3F8A810002948D05379190707D5AB
:102580002A4BD3F8C01000294AD0D3F8C81099B10B
:1025900093791B0708D5254BD3F8E020002A41D0BA
:1025A000D3F8E8201D2142B162B6214B002283F806
:1025B000382030BC01F0E8B819211D4C1D4D94F8AD
:1025C000382043F8315003EBC1030830013A58601A
:1025D00084F8382062B630BC70470422144C164D83
:1025E00094F8381043F8325003EBC20308304A1E07
:1025F000586084F8382062B630BC70470521DCE7AB
:102600000921DAE70D21D8E71121D6E71521D4E712
:102610000822E3E70C22E1E71022DFE71422DDE7DE
:102620001822DBE71C22D9E734A400000080FF1F3A
:102630003894FF1FC800400088004000431E062B4E
:1026400010D81C4A400140F0100070B4104472B61B
:10265000194CE21892F83C20032A1ED8DFE802F059
:102660000315181A704703250E8810F0080F23442D
:1026700014BFC822882242EA0642083183F83C503F
:10268000C0E9002162B670BC704708300225EBE754
:102690000525E9E708300425E6E79A00A318D8697C
:1026A00030B15B6C5960A318596462B670BC704756
:1026B000D961F8E70080FF1F3894FF1F30B4441E33
:1026C000062C15D80C4B400140F01000184472B68F
:1026D0000A4B1D1995F83C5065B1083000251C4483
:1026E000120442F08002026084F83C50416062B6FD
:1026F00030BC70470125F2E70080FF1F3894FF1FB0
:1027000000BE00BF2DE9F04FB64DB74F85B043E096
:10271000DFF8E8A24FEA920B0AEBCB08013BD8F8AE
:10272000041012F00802DEB2A1F1080040F00F819F
:102730005AF83B301B0C1FFA83FE21F808EC002BE3
:1027400000F0FC80A94C21F8062C54F8263041F802
:10275000042C002B00F04281B300E218D26F5060CD
:10276000DFF8B09239F8162023449644D86729F848
:1027700016E000F0EBFF002800F028819C4A9D4BFA
:1027800018F0080F00F1080018BF1346C8F804003D
:102790004AF83B3008232B702C78E4B261071CD533
:1027A000924B93F86820B2B193F8691001F0FF02E0
:1027B00031B1013AD2B283F86920002A00F01085C5
:1027C0008D490A7802F0FF032AB1013BDBB20B709E
:1027D000002B00F0338104232B7014F0080300F069
:1027E000DE803A78D2B2130992D19208834E56F81D
:1027F000321006EBC200C1F38301013940680C2995
:1028000000F29880DFE801F0868696969696969676
:102810004796969607000168D0F804C0744846F8B9
:102820003200724C88B240F2816900224FF0010EF2
:102830004845C4E91B1C62673261B26184F878E0E4
:1028400000F21D81B0F5D06F80F03C82B0F5817F41
:1028500000F0B18200F29282802800F0CE818228BE
:1028600040F06F820CF07F01072900F26A82644811
:1028700084F8602084F8612010F821204FEA1C4180
:102880009207019100F13D8201290A4600F2BE81C2
:1028900004F160003CE2554CD4F874C0BCF1000F68
:1028A0002BD0B4F89AE094F8781094F89800734616
:1028B000402B28BF402340F00209002981F001018C
:1028C000AEEB03020CBF4FF0880A4FF0C80A84F841
:1028D000781006EBC9014AEA034A92B280F001007F
:1028E000A4F89A20634446F839A0C1F804C084F8DB
:1028F0009800002A00F0B4806367B4F86C30B3F538
:10290000A06F17D13F4B94F86E20002184F86D1012
:102910001A700FE0354CB4F86C1042F22103994262
:1029200000F016813849E36E8B4200F0F080304BA6
:1029300046F83230354A012313702BE72C4A2D4BD1
:1029400018F0080F18BF13464AF83B3022E7274C0F
:1029500000F01AFF04EB860CDCF81C20002A5BD088
:10296000A019536890F83C00CCF81C3002F1080321
:10297000C8F80430032807D8DFE800F0026D686368
:102980003444032384F83C3018F0080F12880CBF3D
:102990008823C82343EA02434AF83B30FAE6E007BB
:1029A00000F19280210600F11E81A20706D5184A87
:1029B0000C4913780220DBB213700870E30602D5CD
:1029C000084B10221A7005B0BDE8F08F94F838302B
:1029D0004AF83B00013384F83830DBE644F826003F
:1029E000B300BDE680200740902007403894FF1FC9
:1029F000C8004000880040007595FF1F0080FF1F41
:102A0000C020074098200740210900029420074079
:102A1000882007401496FF1FA31993F83C30032B1E
:102A200000F2D88001A252F823F000BF95270000E1
:102A300095270000752A00006B2A000001F024F998
:102A4000C9E63444042384F83C309DE7344405232C
:102A500084F83C3098E73444022384F83C3093E710
:102A6000BEF13F0F98BF002346E73444012384F8AA
:102A70003C308FE63444002384F83C308AE640F64C
:102A80002129484500F0958200F24E81B0F5106F83
:102A900000F0008140F62111884200F0F780B0F587
:102AA000086F40F04E8194F8681084F860105FEA77
:102AB0001C4040F0838204F160010246844601908C
:102AC000834600910846AAE0C24AC34C1361022023
:102AD0002070C24EC24810609060C24DC2499361DE
:102AE0000D203070FF20287006F8400C81F89830D7
:102AF0002B74BE4B28719F251D70012001F19C0392
:102B0000DC3120705360D16005B0BDE8F08FB8496A
:102B1000236F8B427FF40BAF94F898C094F8781031
:102B2000B44B0078187000294CF002030CBF8820C9
:102B3000C82046F8330006EBC3038CF0010C81F08B
:102B40000101002084F898C084F878105860EEE6FF
:102B5000B4F870300BBBA84B90F800C0417883F8F4
:102B600000C0597090F802C0C17883F802C0D970D3
:102B700090F804C0196883F804C090F805C083F881
:102B800005C0862990F806C083F806C008BF0F2349
:102B900000F1070008BF84F8693094F898C094F8F1
:102BA00078104CF0020300298CF0010C84F898C0D6
:102BB0000CBF4FF0880C4FF0C80C46F833C006EB42
:102BC000C30381F001014FF0000C84F87810C3F8C2
:102BD00004C0A7E618F0080F34440CBF02230323F7
:102BE00084F83C30D6E57D49844B80220D20087066
:102BF0001A70A2077FF5E2AED9E64FEA1C4101291F
:102C0000019184F8602084F861207ED97C4A00928A
:102C10000221901E01918B4600224FF4003C94F853
:102C2000989049F0020A06EBCA0E4FF00108CEF860
:102C300004004FF0C80E4EEA0C0E89F0010C46F865
:102C40003AE084F8783084F898C0002A7DD1BBF14E
:102C5000400F1BD14CF0020C06EBCC0300995960DD
:102C6000B8F1010F4FEA024E40F09A804EF088030F
:102C7000114446F83C3084F8788084F898900846EF
:102C8000402A03D100226067A4F89A20524A012307
:102C900013704FE6DFF83C91C1F3074184F86810E8
:102CA00009F1E00A04E009F10809CA4500F0C5800D
:102CB000D9F820301A06F6D5D9F82400083800F0E3
:102CC00063FDF0E74F4A506800283AD0090C1FFA1C
:102CD0008CF902E00C32506898B3B2F800E08E45EF
:102CE000F8D1B2F802E0CE45F4D1090A032914BFA5
:102CF000118901784FEA1C428A4228BF0A46019294
:102D000006E0012984F860E080D804F160000A46FA
:102D1000402A114628BF40218B464FEA014C4118FA
:102D20000091A2EB0B027AE742F2212290426DD091
:102D300042F22132904200F03C8142F2210398425B
:102D4000A4D0264B0F221A70A0E7402A4CF0020CA8
:102D500082D92D4B224884F87880B8F1010F14BF36
:102D60001946014646F83C1006EBCC03009984F85E
:102D70009890403A596001F1400084E740F20232F5
:102D8000904240F012810CF07F000728D9D80A0C3D
:102D9000D7D1DFF848C01CF8201041F0020116E03E
:102DA0004EF0C80346F83C30019B84F8788084F8E4
:102DB0009890184464E70CF07F000728C1D80A0CEB
:102DC000BFD1DFF818C01CF8201021F002010CF868
:102DD00020102CE00080FF1F94200740C0200740F7
:102DE00088004000882007403894FF1F8420074057
:102DF000020001006295FF1F3096FF1F80200740F0
:102E00009A94FF1F3CA40000C80040001FFA8CF2F7
:102E1000002A40F0D180DFF82CE3DFF82CC3BD4856
:102E2000DEF800E0CCF800E0C1F307410170009249
:102E30009446104601929346F1E6B74B01931A4629
:102E4000203200921A464FF0000B44323F33DFF835
:102E5000FC9203920293DA46019B53F8040F01930C
:102E600030B1D0F8048000F08FFC40460028F8D143
:102E7000009B1868019BC3F800A0A84B43F82BA047
:102E800030B1D0F8048000F07FFC40460028F8D133
:102E9000029A29F81BA012F8013F0292009A42F808
:102EA00004AB0092039A42F804AF023B0392032B57
:102EB00007D8DFE803F076027602029B4FF00102AA
:102EC0001A700BF1010BBBF1070FC5D1DFF880922F
:102ED000934A99F80030002184F8381013701B07CA
:102EE00000F1E48099F801308E49002218070B7038
:102EF0003263B26300F1CB8099F802308A49002234
:102F00000B7019073265B26500F1AE8099F8033095
:102F1000864900220B703267B2671A0700F192806F
:102F200099F80430824900220B701B07C6F89020E4
:102F3000C6F8982073D499F805307E490022180706
:102F40000B70C6F8B020C6F8B82055D499F80630F2
:102F5000794900220B701907C6F8D020C6F8D8208E
:102F600037D494F87880002288F00103C6F8F02066
:102F7000C6F8F82094F8989049F0020A06EBCA00C7
:102F800000224260B8F1000F40F02B81C446424657
:102F9000C346CDF800804046CDF804804FF0880E3F
:102FA00049E6029B83F800A08BE7B0F5A06F7FF4A1
:102FB000C8AE4FF00108DDE7F046DBE704F1610140
:102FC000CDF804E0F34600914FF4803C04F160003A
:102FD00025E600F0BBFB002800F0DC80574B0830F2
:102FE000C6E9383000F0B2FB002800F0CB80544B2B
:102FF0000830C6E93A30B4E700F0A8FB002800F03A
:10300000B9804E4B0830C6E9303000F09FFB0028F5
:1030100000F0A8804A4B0830C6E9323096E700F04D
:1030200095FB002800F0C680444B0830C6E92830E4
:1030300000F08CFB002800F0B580414B0830C6E959
:103040002A3078E700F082FB002800F083803B4BB9
:103050000830C6E9203000F079FB002851D0384B09
:103060000830C6E922305BE700F070FB002800F072
:10307000B080324B0830C6E9183000F067FB0028FA
:1030800000F0A0802E4B0830C6E91A303EE700F071
:103090005DFB08B3294B0830C6E9103000F056FB41
:1030A00098B1274B0830C6E9123025E700F04EFBF7
:1030B00000B3224B0830C6E9083000F047FB90B15E
:1030C0001F4B0830C6E90A300CE794F83830B0647A
:1030D000013384F838300FE794F838303064013326
:1030E00084F83830DAE794F83830B062013384F885
:1030F0003830F7E694F838303062013384F83830ED
:10310000DBE794F83830C6F88800013384F83830AB
:1031100006E700BF7695FF1F3494FF1FB494FF1F8E
:10312000C4200740C8200740CC200740D0200740DB
:10313000D4200740D8200740DC200740880040000A
:10314000C8004000B492FF1F3896FF1F1496FF1F5F
:1031500034A4000094F83830C6F88000013384F8B5
:10316000383078E794F83830C6F8C800013384F86E
:103170003830EBE694F83830C6F8C000013384F8F4
:10318000383042E794F83830C6F8E800013384F864
:103190003830E6E694F83830C6F8E000013384F8B9
:1031A00038301FE794F83830C6F8A800013384F8A7
:1031B0003830C0E694F83830C6F8A000013384F8FF
:1031C000383035E794F83830B066013384F8383059
:1031D0009CE694F838303066013384F838304CE798
:1031E00000BE944693460092104601924FF0C80EDE
:1031F00021E500BFF8B5FFF703F91C48002200F5F0
:1032000080710346C3E9002208338B42FAD1184982
:10321000184E0B68184C194DDFF870C0184F43F466
:1032200080230B60C0F3072301F52731337001F5CC
:103230007771C0F307432370000EFF2328708CF8CA
:103240000030104804F8283C0B700F4C01233B70F1
:1032500085F84C2006F8183C70254FF400721023B6
:103260002570026081F8F830F8BD00BF0080FF1FB4
:10327000348004409C200740B0200740B420074021
:103280009420074008E100E049E400E08020074086
:1032900070B5214E214D45F29934337843B1072062
:1032A000FFF71CF9032806D9013C2ED101232B700E
:1032B0004FF0FF3028E000F049FA01460028F3D033
:1032C0001748038842880B72C3F3012343EA820341
:1032D0004B728388C2F3831242EA03128A72C28855
:1032E000C3F3051343EA8213CB720E4B92080A73A1
:1032F0001A784A735A789B78CB73082307208A730D
:103300000B80FFF79BF9002070BD2B78002BCDD1EF
:1033100002F0FEF9C1E700BFA094FF1F5495FF1F04
:103320002696FF1F2296FF1F1F2806D80A280BD0BB
:103330000B2814BF00202B2070477F2806D8044B91
:10334000184410F8200C7047282070470020704760
:10335000BDA2000070B5174E174C45F29935337871
:1033600043B10120FFF7BAF8032806D9013D1AD16D
:10337000012323704FF0FF3014E000F0E7F901461D
:103380000028F3D06378037200240C4B44721A684F
:103390009B88C3810823C0F80A2003800120FFF71F
:1033A0004DF9204670BD2378002BE1D102F0B0F931
:1033B000D5E700BFA094FF1F5495FF1F5695FF1F30
:1033C00030B489B1134A537831EA03040CD00B436B
:1033D0005370E8B930BCFFF7BDBF0133062B10D1E5
:1033E0000029F7D130BC70470028FBD000210A4AE1
:1033F000002314469D5C8542F2D00133062BF9D19F
:103400000023E25C002AE8D1024A13449870E1E705
:103410000121ECE75495FF1F5695FF1F020AC12AB0
:1034200010B508D9DF2AD3B211D89B0103F4F86391
:1034300000F03F001843FFF777FF002849D010F055
:10344000400F14BF0221002100F03F0003E0F02BE9
:1034500004D10021C0B2BDE81040B1E7E02B02D199
:10346000C1B20020F7E7E22B18D110F0FF0030D0F6
:10347000184B1C78A0422CD05978884229D09A78D1
:10348000904226D034B139B11ABB02229854BDE81B
:103490001040FDE60022F9E70122F7E71C33DBB21A
:1034A000032B16D8C0F3090098B10B4900230A4634
:1034B00031F8134084420CD00133042BF8D100239F
:1034C00032F8131011B922F81300E0E70133042B8E
:1034D000F6D110BD2296FF1F2696FF1F30B4E1B132
:1034E000104A53780B4218D023EA0103537010B9E5
:1034F00030BCFFF72FBF012200230B491C465D5C47
:10350000854208BF5C5403F1010308BF0122062B6A
:10351000F5D1002AECD130BC70470028FBD0002246
:10352000EAE700BF5495FF1F5695FF1F020AC12A04
:1035300008B508D9DF2AD3B211D89B0103F4F86388
:1035400000F03F001843FFF7EFFE002840D010F0D6
:10355000400F14BF0221002100F03F0003E0F02BD8
:1035600004D10021C0B2BDE80840B7E7E02B02D18A
:10357000C1B20020F7E7E22B16D110F0FF0027D0F0
:10358000144B1A7882420BD05A7882420AD09A7829
:1035900082421DD1022200219954BDE8084077E6FD
:1035A0000022F8E70122F6E71C33DBB2032B0FD829
:1035B000C0F3090060B1084A002332F813108142B9
:1035C00003D1002122F81310E7E70133042BF4D1D3
:1035D00008BD00BF2296FF1F2696FF1F10B51A4A8E
:1035E00013460021507803F8011F073213F8014FEA
:1035F0001970934240EA0400F8D108B1FFF7AAFE1F
:10360000124A002302F10801184632F8024F1080D6
:10361000002C18BF01239142F7D10D4A1178507840
:1036200000294FF0000118BF0123884290781170E3
:1036300018BF0123517018B19170BDE8104027E602
:103640009070002BF9D110BD5495FF1F2496FF1FD9
:103650002296FF1F10B5094C00236170A070E37023
:1036600023716371A371E371FFF774FE28B9607071
:10367000A070BDE81040FFF76DBE10BD5495FF1F50
:1036800008B5FFF751FE50B110F0400F14BF0221F2
:10369000002100F03F00BDE80840FFF7DBBF08BD98
:1036A00010F0800F134B03D100229A60FFF7E8BFA0
:1036B000BF2812D89A68012A00F03F0004D10022E6
:1036C0009A609B891843F1E7022A05D19A8942EA58
:1036D0008010988101229A607047DF2803D880010A
:1036E00000F4F860F5E7EF289DBF000398810222FF
:1036F000FF22F0E75495FF1F10B4124A002302F195
:103700000801184632F8024F1080002C18BF012320
:103710008A42F7D10C4A1178507800294FF0000105
:1037200018BF012388429078117018BF012351708F
:1037300010B1917010BCABE59070002BFAD110BCA9
:10374000704700BF2496FF1F2296FF1F10B572B668
:103750000B480268B2FA82F11D2902DD62B6002030
:1037600010BD4FF00043CB4022EA0302026062B674
:10377000044C48234B43E0180022E2504260EFE73C
:103780004090FF1FBC83FF1F0C4B4822C31AB3FBA2
:10379000F2F31D2B11D80A4A127822B1094A127885
:1037A0000AB1FEF7B1BE72B607494FF0004222FAE5
:1037B00003F30A681A430A6062B67047BC83FF1FAE
:1037C0007094FF1FA094FF1F4090FF1F10F1800F07
:1037D0002DE9F047804608BF6FF07E0811F1800F99
:1037E0000F4608BF6FF07E0712F1800F1646DFF814
:1037F00080A0DFF8809008BF6FF07E0613F1800F85
:103800001D4643F2292408BF6FF07E059AF8003068
:103810004BB10520FEF762FE022807D9013C1FD1FB
:10382000012389F800304FF0FF3017E0FFF78EFFDB
:1038300001460028F2D00123037299F80130437247
:103840000623002480F80A80C7720673457303803C
:10385000052089F80040FEF7F1FE2046BDE8F0871C
:1038600099F80030002BDBD101F052FFCEE700BF0A
:10387000A094FF1F6495FF1F10B400309DF8044012
:1038800018BF012009B140F004000AB140F0020065
:103890000BB140F008000CB140F01000044B587020
:1038A00000231A461946184610BCFFF78FBF00BF09
:1038B0006495FF1FF8B5244C244F2288A388244E1A
:1038C00082429CBF02F1FF3290B28B429CBF03F157
:1038D000FF3399B26080E18043F229253B7843B100
:1038E0000520FEF7FBFD022806D9013D25D1012365
:1038F00033704FF0FF301FE0FFF728FF014600282C
:10390000F3D002230372D4E90202638800FB03238D
:103910001A0C4A721B0ED4E904028B72E38800FB76
:1039200003231A0C05201B0E00250880CA720B7396
:103930003570FEF783FE2846F8BD3378002BD6D1CC
:1039400001F0E6FECAE700BF4490FF1FA094FF1FEE
:103950006495FF1FB0F5F05F28BF4FF4F05080284A
:1039600038BF8020B1F5F05F28BF4FF4F051174BFE
:103970008029F0B538BF802147084E0807F100457F
:10398000B5FBF0F59D606D0805F1FF3C06F10044C4
:10399000B4FBF1F41C616408C3F80CC004F1FF3CF3
:1039A000188099805F80DE80C3F814C06AB1084A2D
:1039B00015441444074ADD6017441644B7FBF0F081
:1039C000B6FBF1F65C6198601E61F0BD4490FF1F8C
:1039D00098999909CDCCCC6C38B5104C236863B15B
:1039E00020684388C2180133157A02889A4212D897
:1039F000FFF7CAFE0023236004E0094B1B781BB9C4
:103A00004FF0FF35284638BD0320FEF731FD20601A
:103A10000028E5D1F4E74380F4E700BF6895FF1F75
:103A2000A094FF1F10B50B4C236823B123686BB91A
:103A30004FF0FF3010BD084B1B78002BF8D003204F
:103A4000FEF716FD20600028F0D1F1E75A881344F4
:103A5000187AEFE76895FF1FA094FF1F044B988822
:103A6000044B1A681AB1138852889B1A184470477D
:103A70001496FF1F6895FF1F2DE9F047DFF87C9033
:103A80001D4E80460D46002715B93846BDE8F08723
:103A900099F80030002BF8D0336853B90320FEF7B3
:103AA000E7FC30600028F0D0038813B9FFF76CFE04
:103AB000F4E7D6F800A05346BAF8021033F8084BE2
:103AC000641AAC4228BF2C4622461944404602F0F4
:103AD00047FFBAF80230A04427442D1B1C44BAF813
:103AE0000030A4B2A342AAF80240CDD85046FFF756
:103AF0004BFE00233360C7E76895FF1FA094FF1FAC
:103B000010B5094B1B786BB1084C206818B1FFF752
:103B10003BFE002323600320FEF7AAFC10B1FFF751
:103B200033FEF8E710BD00BFA094FF1F6895FF1F8C
:103B30002DE9F0472A4CDFF8AC80012781460D467D
:103B400027710E4616B9267128460BE0A3680BBBF9
:103B500047F2095A98F8003003F0FF0223B92271A6
:103B60004FF0FF30BDE8F0870420FEF7B7FC0728D0
:103B700005D82771FFF7EAFDA06058B92071BAF1A6
:103B8000010A01D0237B13B101232373E8E701F07D
:103B9000BFFDDFE7A168002323734B88C3F1400218
:103BA000B24228BF324698180B444880B61A0733F1
:103BB00009EB020AD1450DD14B883F2B06D9402392
:103BC0000B800420FEF73AFD0023A36005236373F6
:103BD000D146B7E719F8012B03F8012FEAE700BF38
:103BE0006895FF1FA094FF1F07B502AB012103F8E2
:103BF000010D1846FFF79CFF03B05DF804FB10B5FC
:103C00000D4C01232371A3687BB90C4B1B7813B9AE
:103C10000020207110BD0420FEF760FC0728F7D8B3
:103C2000FFF794FDA0600028F2D0A3685888002315
:103C3000C0F140002371EDE76895FF1FA094FF1FBE
:103C400070B50F4B1B787BB10E4CA5680126267111
:103C50005DB100266B88667329462B800420FEF731
:103C6000EDFCA6600023237170BDFFF76FFD0146D8
:103C700020B104206573FEF7E1FCF3E76673F1E71A
:103C8000A094FF1F6895FF1F38B50D4C237903F0F2
:103C9000FF053BB9A16831B14B880B800420FEF7CA
:103CA000CDFCA56038BDFFF751FD014620B10420D1
:103CB000BDE83840FEF7C2BC01236373F2E700BFE2
:103CC0006895FF1FC029F0B528BFC02172B6124BFE
:103CD0000022C3E90222C3E90422C3E906221860D4
:103CE0009A8001278A420BD0550903EB850502F023
:103CF0001F04AE6807FA04F43443AC600132F1E704
:103D000000234FF482749A4204D004FB03014B80D9
:103D10000133F8E762B6F0BD7895FF1F70B572B653
:103D20001C4A918802F1080000EB8103054602F16C
:103D30002006B34202D362B6002070BD1C4654F880
:103D4000040B10B901312346F3E7B0FA80F44FF0C9
:103D50000046E64020EA0600186000B90131918073
:103D6000118C01318EB2168462B65B1B0A4D41F68E
:103D70007C7005FB04049B104FF4025000FB0343CE
:103D800014680125E554E018538C8B4238BF5684E3
:103D9000D3E700BF7895FF1FFCFEFFFF10B54288F8
:103DA00072B60378012B03D9013B037062B610BDD4
:103DB0000A4B501103EB8004D2434FF0004102F054
:103DC0001F0221FA02F2A1680A43A2609A88824285
:103DD0001A8C88BF9880013A1A84E7E77895FF1F0C
:103DE00030B5C3687BB1187A90420AD158685C7AC2
:103DF000006950F8245025B940F8241008780130A3
:103E00000870DB68EEE730BD437A8B4288BF0269F9
:103E10004FF0000386BF52F8210042F821301846C7
:103E2000704738B5437A8B4202D80024204638BD0B
:103E3000036953F82140002243F82120002CF4D0DC
:103E40002378012BF2D9FFF769FF054628B14FF41B
:103E50008072211D043002F083FD2378013B237022
:103E60002C46E3E7037C30B533BB4368427A5B7A88
:103E70009A4221D872B60268D3687BB9D060002319
:103E8000C360937A01339372012313724268917A6B
:103E900013721944917203740DE00B46D96861B135
:103EA0001C68A242F9D15D684468A542F5D11C891D
:103EB00003899C42F1D162B630BDD860DFE7037C54
:103EC00010B504464BB14368427A5B7A9A4204D8F3
:103ED00072B60268D3680BB962B610BD984223D19E
:103EE000C368D3606368627A1B6953F8220040B1EB
:103EF000FFF754FF72B66368627A1B69002143F8CA
:103F000022102268937A013BDBB2937203B91372D9
:103F10006268937A013BDBB2937203B91372002398
:103F20002374D9E79C42DDD0DB68002BFAD1D9E7B6
:103F3000084B93F824205AB9074AD0211170A2F2F5
:103F400056324FF080410120116083F82400704701
:103F5000002070477895FF1F5EE400E0044B4FF0AF
:103F600080421A60034B002283F82420704700BF70
:103F700088E100E07895FF1F174A136843F08073CB
:103F80002DE9F0411360154A154E1368154D43F0A5
:103F9000010313603768AC6A9CB1237A7BB1236854
:103FA000D6F800801B68204698473268E388A2EB69
:103FB0000802120991B29342A18038BFE18064697E
:103FC000EAE73368E98DDB1B1B099AB29942AA859F
:103FD00038BFEA85BDE8F081FCED00E0001000E0AC
:103FE000041000E07895FF1F10B5EFF3108472B64F
:103FF000427F5AB9037F012B10D1124B196841B986
:10400000C0E90511186058600123437704B962B60E
:1040100010BD42615A6882615061F4E7032BF3D10D
:10402000084B996841B9C0E905119860D860064B02
:104030004FF080521A60E7E74261DA6882615061AE
:10404000F4E700BFA895FF1F04ED00E038B50B4C66
:104050000025EFF3108272B6A06858B14369A360DF
:1040600033B19D6102B962B6457783689847F0E73E
:10407000E360F7E702B962B638BD00BFA895FF1F3D
:10408000FFF7E4BF30B50346EFF3108472B6407F0C
:1040900088B11A7F012A11D1D3E9051222B15161E9
:1040A000596921B18A6104E00C4D2960F8E70B4998
:1040B0004A6000225A7704B962B630BD032AF8D1AB
:1040C000D3E9051232B1516159690029EAD1034996
:1040D000CA60EEE7014DA960F6E700BFA895FF1F93
:1040E000037F012B11D1437F63B1D0E9052323B1B5
:1040F0005A61426922B1936104E00D490A60F8E710
:104100000B4A5360002303777047032B0FD1437F83
:10411000002BF7D0D0E9052333B15A614269002A58
:10412000E9D1034AD360EDE701498A60F6E77047B9
:10413000A895FF1F0023C360EFF3108272B6044BF3
:104140001969186101238160037502B962B670476D
:10415000A895FF1F15494B6930B52BB9C0E902334B
:1041600048610223037530BD04681A68944206D280
:104170000025121B8360C560D8601A60F0E70268F2
:104180001C689968121B026061B10C6894420B466E
:10419000F5D98160C968C160D860C168A21A886019
:1041A0001A60DEE7C0E902139860DAE7A895FF1FFE
:1041B00010B5EFF3108172B6037DDBB2022B12D182
:1041C00083682BB1C2680468DA601A6822441A60F6
:1041D000C2682AB193600023037501B962B610BDAD
:1041E0000A4A5361F7E7012BF7D1084A1369834262
:1041F00003D183681361EEE71346002BEBD09A6876
:104200008242F9D182689A60E5E700BFA895FF1F56
:10421000037D70B505460C4616460BB1FFF7C8FF87
:1042200064B1022C38BF0224023C00232E612C60B2
:104230006B602846BDE87040FFF77CBF70BD037D12
:1042400070B504460D4616460BB1FFF7B1FF65B1D8
:10425000022D2B4638BF0223023B2661C4E90035FC
:104260002046BDE87040FFF765BF70BD70B5154DC5
:104270006C6900261CB123687BB1013B2360EFF31E
:10428000108372B6002228692A6103B962B6B8B1F8
:104290008468FFF75FFF2046F9E7A26802B1D360A8
:1042A00020696A61036826751B68224600219847C9
:1042B00063681BB123602046FFF74CFF6C69D9E7A8
:1042C00070BD00BFA895FF1F024A13680133136039
:1042D000704700BFB492FF1F024A13680133136096
:1042E000FFF7C4BFB492FF1F7047036830B5EBB14E
:1042F00000249C600124DC600468194B2260234484
:104300001B110322174DA260174A45F823100179AB
:10431000995444335A1102F138224032920003F08A
:104320001F03012000FA03F3136017E00F4C23680A
:1043300043F40003236000BF0D4B01241C6003F510
:1043400080730C4C036003689D68002DD4D010333B
:10435000A3420360F7D900230360184630BD00BFB5
:10436000008FFCBF5C90FF1F44E400E03C800440F1
:10437000007003403F71034030B50468B4B10C4A8B
:104380002244121102F144014B1103F1382360332E
:104390009B0001F01F01012505FA01F11960054B91
:1043A000054943F822100023A360036030BD00BF1D
:1043B000008FFCBF5C90FF1FE9420000024B01220E
:1043C0001A60024B1B6818470C7103405C90FF1F7A
:1043D000024B01221A60024B5B6818471C710340B4
:1043E0005C90FF1F024B01221A60024B9B6818472A
:1043F0002C7103405C90FF1F024B01221A60024B9C
:10440000DB6818473C7103405C90FF1FFFFFFFFF14
:10441000F8B507460C4659B18E180025B44208D0AD
:104420003B6814F8011B1B68384698470544F5E7BC
:104430000D462846F8BD2DE9F04100258C688AB06C
:10444000074688462E4694B12B46212201A94046B4
:1044500000F08DFC3B68202C22465B6828BF2022A0
:1044600001A938461544A41A98470644EBE730469C
:104470000AB0BDE8F08107B5054B1B88ADF80430E4
:10448000036802225B6801A9984703B05DF804FB4A
:10449000F0A4000010B5036814465B6898472046F6
:1044A00010BD0EB403B503AA52F8041B019203F029
:1044B0006DFB02B05DF804EB03B070470EB403B5BA
:1044C00003AA52F8041B019203F060FB02B05DF8EE
:1044D00004EB03B07047F0B505468BB0066822B90F
:1044E0003368C9B298470BB0F0BD012A08BF0A2251
:1044F00099B930228DF82520212033B10138C0B27E
:104500000AAB03442D2203F8242C01A9C0F1220296
:104510000144736828469847E5E72120B1FBF2F78C
:1045200002FB1711CCB2092994BF04F1300104F148
:1045300037010AAC0444C9B204F8241C3946002FE0
:10454000DBD00138C0B2E9E70029BABF49422D23C8
:1045500000230A22FFF7BFBF2DE9F04F85B00546C3
:104560001946104617461E469DF8384001F092FD48
:1045700040B14F49284600F0AEF88246504605B09B
:10458000BDE8F08F26F000484FF0FF32494B384627
:10459000414601F07FFD48B94FF0FF32454B3846A8
:1045A000414601F059FD08B94349E3E74FF0604245
:1045B000424B3846314601F063FD08B14049D9E726
:1045C0004FF060423F4B3846314601F03BFD00283A
:1045D000F4D1002200233846314601F033FDB0B15A
:1045E00006F100464FF0010A0FF2BC09D9E9008933
:1045F00035494FF0000B00205FFA8BF3A34208D23D
:1046000042464B4601F0ACFA0BF1010BF4E782464F
:10461000EAE702460B463846314601F0EBF80F4612
:10462000064601F075FD5346014680460A2228469B
:10463000FFF751FF8246002CA0D0404601F016FA49
:104640000B4602463946304604AE01F0D1F82E231F
:1046500006F8103D0F2C28BF0F242746B346013F14
:10466000FFB2FF2F15D00022184B01F079FA8946CE
:10467000804601F04DFDC0B200F1300306F8013F65
:1046800001F004FA02460B464046494601F0B0F8F4
:10469000E5E72B68621C5B68D2B25946284698470A
:1046A0006CE700BFAFF300809A9999999999B93F47
:1046B0000CA50000FFFFEF7F10A50000FFFFEF41FA
:1046C00014A50000FFFFEFC10000E03F0000244000
:1046D00000207047704770B5044608460D4602F04A
:1046E0006AFA23680246294620465B68BDE87040A6
:1046F000184710B50446FFF73FFE204610BDFFFFE8
:104700000448054A054900230361802303751030DE
:1047100002F078B8D495FF1F0C8DFF1FF346000000
:104720000023C0E9003310B503730C688360046094
:104730004C6844608C688460C1E900338B6010BDB4
:104740000023C0E9003310B503730C688360046074
:104750004C6844608C688460C1E900338B6010BD94
:1047600010B50446006802F0E1F8204610BD38B5E7
:1047700004460D460068013102F0C6F910B1C4E9E3
:104780000005012038BD43688B4210B5044601D3B3
:10479000012010BDFFF7EBFF0028FAD0A368002B23
:1047A000F6D122681370F3E7F8B504460F461546B4
:1047B00032B9036803B11A700023A3602046F8BD24
:1047C0001146FFF7E0FF064638B9206810B102F045
:1047D000ADF8266000236360EFE7A56039462068E6
:1047E00002F0E1F9EAE738B500230446C0E90033F6
:1047F000836003730D4639B1084602F0DCF929469F
:1048000002462046FFF7D0FF204638BD10B50023F2
:104810000446C0E900338360037300F055FC204672
:1048200010BD38B5054608460C4602F0C4F92146CD
:1048300002462846BDE83840FFF7B6BF13B5044628
:104840000023C4E90033A36023730A22084601A9A8
:1048500003F06AF9204601A9FFF7E3FF204602B002
:1048600010BD10B5044686B00023C4E90033A36030
:104870002373084601A902F03EF8204601A9FFF77C
:10488000D0FF204606B010BD10B5044686B0002308
:10489000C4E90033A3602373084601A903F044F977
:1048A000204601A9FFF7BDFF204606B010BD10B598
:1048B00004468AB00023C4E90033A360237308468A
:1048C00001A9FCF738F8204601A9FFF7AAFF204606
:1048D0000AB010BD10B504468AB00023C4E9003305
:1048E000A3602373084601A9FCF704F8204601A938
:1048F000FFF797FF20460AB010BD38B5054600689F
:104900000C4668B16A688B689A4207D3096802F05E
:104910004AF9A368AB600023A36038BD02F006F833
:1049200023682B6063686B60A368AB600023C4E9F5
:104930000033F1E7814203D08A680968FFF734BF8A
:10494000704710B500230446C0E900338360037349
:10495000FFF7F0FF204610BD884210B5044601D095
:10496000FFF7CBFF204610BD884210B5044601D0AA
:10497000FFF7C3FF204610BD10B5044619B1FFF77D
:1049800050FF204610BDA160FBE710B504468AB079
:104990000023C4E90033A360237308466B46911CCF
:1049A000FBF7D9FF01462046FFF7E6FF20460AB095
:1049B00010BD10B5044600F087FB204610BD07B5BA
:1049C00000238DF80410012201A98DF80530FFF7AE
:1049D000EBFE03B05DF804FB10B500230446C0E90C
:1049E000003383600373FFF7EAFF204610BD2DE913
:1049F000F843036885688B4204460E4617461ED866
:104A00005A1991421BD2A1EB03094FF001089FB143
:104A10003D4429462046FFF7B6FE68B12168A068EC
:104A20000844B8F1000F0DD03A46494401F098FF10
:104A3000236800225A55A5602046BDE8F8834FF050
:104A40000008E4E7314602F0AEF8F4E78A68096846
:104A5000FFF7CDBF38B505460C4639B1084602F020
:104A6000AAF8214602462846FFF7C1FF284638BD6E
:104A700013B500238DF80410012201A904468DF816
:104A80000530FFF7B4FF204602B010BD1FB5044645
:104A90000A22084601A9FBF74EFF01A802F08BF895
:104AA00001A902462046FFF7A2FF204604B010BD30
:104AB0001FB504460A22084601A9FBF71BFF01A8FF
:104AC00002F079F801A902462046FFF790FF204640
:104AD00004B010BD1FB504460A22084601A9FBF721
:104AE0002AFF01A802F067F801A902462046FFF755
:104AF0007EFF204604B010BD1FB504460A220846BA
:104B000001A9FBF7F7FE01A802F055F801A902463A
:104B10002046FFF76CFF204604B010BD10B588B0EA
:104B200004466B46022208460421FBF714FF684640
:104B300002F041F8694602462046FFF758FF20463A
:104B400008B010BD10B58A6809680446FFF74FFF2A
:104B5000204610BD38B505460C4639B1084602F06E
:104B60002AF8214602462846FFF741FF284638BD6D
:104B700038B5044608460D4602F01DF8294602469F
:104B80002046FFF734FF204638BD10B50446FFF736
:104B90006FFF204610BD10B50446FFF777FF204693
:104BA00010BD10B50446FFF795FF204610BD10B5A7
:104BB0000446FFF7A1FF204610BD10B50446FFF7DD
:104BC00089FF204610BD10B50446FFF795FF20462B
:104BD00010BD10B50446FFF7A1FF204610BD10B56B
:104BE00019460446104601F0B3FA01462046FFF785
:104BF00095FF204610BD03680A46096863B141B9B4
:104C0000806860B118787047906840B10878404279
:104C10007047184601F0BDBF0029F5D1084670471E
:104C200008B582688B689A4205D1FFF7E4FFB0FAB5
:104C300080F0400908BD0020FCE7826808B53AB959
:104C400021B10878B0FA80F0400900E0012008BDE9
:104C5000006809B90078F5E701F09BFFF2E708B5B5
:104C6000FFF7C9FFC00F08BD08B5FFF7C4FF002854
:104C7000D4BF0020012008BD08B5FFF7BCFF002805
:104C8000CCBF0020012008BD08B5FFF7B4FFC0432A
:104C9000C00F08BD884270B515D083688A689342FA
:104CA0000FD183B104680D68013C14F8010F50B1B5
:104CB00002F0E2FE064615F8010B02F0DDFE864228
:104CC000F3D0002070BD0120FCE710B583681446C6
:104CD0008A689B1AA3420AD3006838B1096841B1B7
:104CE000204401F070FFB0FA80F0400910BD0020B0
:104CF000FCE70846FAE782688B689A4202D30022F2
:104D0000FFF7E3BF0020704708B58A6883689342C5
:104D10000BD3006840B1096849B19B1A184401F0EF
:104D200038FFB0FA80F0400908BD0020FCE70846D3
:104D3000FAE783688B4284BF03685A5470478368DC
:104D40008B4201D9006818B90248002303707047EC
:104D500008447047EC95FF1F83688B4203D90068B5
:104D600010B1405C704700207047FFF7F5BF58B5A1
:104D70000E462AB121B184689C4202D800230B70F0
:104D800058BDE41A013A9442016828BF14461944F8
:104D90002246304601F029FF00233355F0E78368AF
:104DA000934210B506D90468A01801F0E5FE08B1D9
:104DB000001B10BD4FF0FF30FBE70022FFF7EFBFF5
:104DC0008368934210B507D904680968A01801F0F8
:104DD00035FF08B1001B10BD4FF0FF30FBE700228C
:104DE000FFF7EEBFF8B583689342054602D84FF04F
:104DF000FF30F8BD0368541C00221F5D1A55066879
:104E0000304601F007FF37550028F0D02B68C01A54
:104E1000EFE78268013AFFF7E5BF2DE9F04115465B
:104E20008A680F46CAB18368BBB19A4215D8066832
:104E3000AB4298BF03F1FF3530464FF0FF3406EB2D
:104E4000050840450BD8396801F0F8FE38B1831BDE
:104E5000AB4298BF1C460130F3E74FF0FF342046C9
:104E6000BDE8F08182688B68D21AFFF7D6BF9A42FC
:104E7000F8B50E4682BF11461A460B4600218160E6
:104E80000173B56895420446C0E900110BD39D42F9
:104E900028BF1D4633685F5D595531681144FFF7DF
:104EA0006BFD33685F552046F8BD10B58B6804462E
:104EB000FFF7DDFF204610BD036810B53BB1013B95
:104EC00013F8014F1CB18C42FAD11A70F8E710BDEB
:104ED0002DE9F74FD0F808A0054688461646BAF1E6
:104EE000000F49D0D1F808B0BBF1000F44D097684B
:104EF0000468A7EB0B07002F0ED12046D8F800104E
:104F000001F09CFE0446002836D0B268316801F0FA
:104F100027FDB0680444F0E70CDB0B68D146194666
:104F20002046019301F08AFE50B300EB0B04B94414
:104F3000019BF4E7A146D8F80010204601F07EFE60
:104F40008346A8B1A0EB040A214652464846D14404
:104F500001F006FD4846B268316801F001FDB36812
:104F6000D8F808409944AB683B445C44AB60E2E746
:104F70002146484601F017FE284603B0BDE8F08FF1
:104F8000CA45F9D06B684B4523D3AA684FF0000996
:104F9000013A002AF0DB41462846FFF73EFF041E97
:104FA000EADBD8F808302968AA6823441944D21AE1
:104FB000C81901F0E0FCAB682A683B44AB6002F81A
:104FC00003902868B2683168204401F0C9FC621E71
:104FD000DFE749462846FFF7CAFB0028D5D1CBE7D3
:104FE00083688B4281BF0368816000225A547047F6
:104FF00038B504460846A3688B4211D982B11144E2
:105000008B4238BF1A1A25689B1A1118A3601A1A06
:105010002944284401F0AFFC2268A3680021D15440
:10502000204638BD38B5046805463CB1013C14F84B
:10503000010F18B102F020FD2070F8E7284638BDB6
:1050400038B5046805463CB1013C14F8010F18B1AD
:1050500002F01FFD2070F8E7284638BD2DE9F04129
:10506000076806460FB38468FCB13D46287805F111
:10507000010801F01FFC48B9013C3C44207801F0D4
:1050800019FC28B1A54203D8013CF7E74546EDE7F6
:10509000621C521BAF42B26003D22946384601F06F
:1050A0005FFC3268B3680021D1543046BDE8F0811E
:1050B000006808B101F0ABBB7047006810B1002177
:1050C00002F0FABB0020704738B5054608460C468A
:1050D00001F071FD214602462846BDE83840FFF741
:1050E00063BBFFFF024A136801331360704700BFC0
:1050F000F095FF1F00B5ADF2044D0B46024609497D
:10510000684601F019FDFEF77AFD38B1684601F0F6
:1051100052FD69460246044800F063FA0DF2044D60
:105120005DF804FB58A500006C90FF1F2DE9F04FBF
:10513000B94B1A79012AADF2044D1C4600F0C0812A
:1051400014D3022A00F0C581B449684601F0F4FC8A
:10515000FEF755FD002800F00F81684601F02BFD99
:1051600069460246AE4800F03CFA05E15879AD497F
:10517000AD4F012202FA00F3002840F001810A60DD
:1051800040F203123A6013F00200A849A84E00F062
:10519000048101220A6040F20312326013F0040518
:1051A000A449A54800F0058101220A6040F20312DB
:1051B000026013F00800A149A14D00F00681012210
:1051C0000A6040F203122A6013F010009D49DFF8D4
:1051D000AC8200F0068101220A6040F20312C8F896
:1051E000002013F020009849DFF894E200F00681D7
:1051F00001220A6040F20312CEF8002013F04000B2
:105200009249DFF880C200F0418101220A6040F239
:105210000312CCF8002013F080038D49DFF8689268
:1052200000F0418101230B6040F20313C9F8003004
:10523000884B894980484FF480321A600A68D20648
:105240005CBF4FF480723A604FF400321A600B6812
:1052500013F0110F04BF4FF4807333607F4B0122B2
:105260001A607F4A13684FF48073036000F533209F
:1052700008304FF4805AC0F800A00C30D0F800A0DD
:105280001AF00C0F08BF2B6094F805A0012303FA55
:105290000AF3BAF1000F0ED1DFF8C8A14FF4803B3A
:1052A000CAF800B0D1F800A01AF0100F04BF40F205
:1052B000031AC7F800A09F070BD56A4F4FF4003AB6
:1052C000C7F800A0096811F0110F04BF40F20311E4
:1052D00031605E0707D5644901260E6011685649A2
:1052E00040F203160E6019070AD560494FF4805644
:1052F0000E60016811F00C0F04BF40F20311296029
:10530000DF060BD559494FF400550D60016811F0C7
:105310000D0F04BF40F20311C8F800109E0609D516
:1053200051498020086011684D0704BF40F2031105
:10533000CEF80010580609D54B49102008601168B6
:1053400049075CBF40F20311CCF800101F0609D5D5
:10535000454B0421196013689E075CBF40F203139C
:10536000C9F800302E4A02231374012323712368E5
:105370000133A360FF2353740DF2044DBDE8F08F99
:105380003B4A126812F4803F40F2031208BF4FF408
:1053900080723A6000220A60F5E6354A126812F41B
:1053A000003F40F2031208BF4FF480723260086081
:1053B000F4E6304A126812F0010F40F2031208BFFF
:1053C0004FF4807202600D60F3E62B4A126812F40B
:1053D000805F40F2031208BF4FF480722A600860B9
:1053E000F2E6254A126812F4005F40F2031208BF89
:1053F0004FF48072C8F800200860F2E61D4A126877
:1054000012F0800F40F2031208BF4FF48072CEF802
:1054100000200860F2E600BFF095FF1F7DA50000A8
:105420006C90FF1FC00AFE4340A00440C40AFE4324
:1054300044A00440801AFE4300C00440B002FE4372
:1054400030900440B402FE439C1AFE43901AFE437F
:10545000881AFE4348F00F4054F00F40C8F00F4048
:10546000D4F00F4044F00F40C4F00F4004F00F4060
:1054700040F00F40C0F00F4000F00F403490044067
:105480001CC0044010C0044008C00440434A1268D5
:1054900012F0100F40F2031208BF4FF48072CCF8E4
:1054A00000200860B7E63D4A126812F0040F40F28F
:1054B000031208BF4FF48072C9F800200B60B7E6F2
:1054C00019689A689142FFF457AF354A127C1A71F5
:1054D00052E7344B1B6813F4005F334B196814BF59
:1054E000102200220D0619681B6848BF42F02002F6
:1054F000C80648BF42F04002590748BF42F0800248
:105500001511637929492A466846EEB201F014FB69
:10551000FEF775FB38B1684601F04DFB694602465F
:105520001F4800F05EF81E4B5A7CB24298462BD1C1
:10553000637923441B7BB3421BD0002798F81430B7
:105540006179FAB2934204EB010311D91B7B7340DA
:105550001341DB070AD545FA02F313F0010F42EAC3
:1055600001210CBF03200420FFF7C4FD0137E5E74C
:105570001E7363790133DBB2032B4FF0000294BF3B
:10558000637162712271F7E60122227102221A749C
:105590005E7423680133A360EEE600BFC0F00F40E5
:1055A0006C90FF1F10F00F40D0F00F406AA5000074
:1055B000FEF7A6BAFEF736BAFEF70EBAFEF74EBAF7
:1055C000FEF73EBBFEF71BBB08461146FEF7B0BA1E
:1055D0000846FEF709BB08B50846FEF761F801204A
:1055E00008BD03685B6818472DE9F04FADF2044D24
:1055F000FDF700FE314A1378002BFCD001224FF456
:1056000040714FF48060FEF7A5F901210D20FBF7F2
:1056100047FC2B4B2B4A1B682B4913F4803F40F26D
:10562000031308BF4FF480731360284B00221A60E5
:10563000684601F0B8FAFEF7E2FA38B1684601F0C0
:10564000BAFA694602462248FFF7CBFF07222149F2
:105650001F48214DDFF88C90DFF88CB0FFF7C1FFB9
:105660004BF67F321D491E48FEF73FFE00242023E3
:105670002B60012723462646CA46D9F80080984564
:1056800001D0FFF753FDDAF800309A1BB2F57A7FAC
:1056900004D9202267B92A601E460127092C04D8A4
:1056A00004F13100C0B2FDF7FBFF01344346E4E7EB
:1056B000CBF800201E460027F0E700BFA094FF1F94
:1056C00040F00F4040A0044087A50000C00AFE4300
:1056D0006C90FF1F93A5000084F00F40E550000080
:1056E0000096FF1FF095FF1F88F00F400448054A01
:1056F00005490023036180230375103001F082B84F
:10570000F095FF1F0C8DFF1FF34600007047FFFF51
:105710002DE9F8432C4C2378002B3DD02B4D2A78D3
:10572000002A39D10122D9072A700BD5FEF796F944
:1057300008B1FFF7EBFF264B1B781BB1237823F052
:105740000103237023789A0714D5DFF89480DFF8DB
:105750009490002698F80020F3B29A420AD959F89A
:1057600023703B6838461B69984708B13B699847E6
:105770000136EFE700232B7023785B070CD5154922
:105780000B684BB1EFF3058333B9EFF3108272B6B8
:10579000086818B902B962B6BDE8F8830E4C2578DE
:1057A000002DF7D10123237043690B6043B19D6144
:1057B00002B962B600254577836898472570EBE704
:1057C00006490B60F4E700BFBD90FF1F0996FF1F5D
:1057D000BC90FF1FA895FF1FC395FF1FAC95FF1F2F
:1057E000C495FF1FC895FF1F81F0004102E000BF74
:1057F00083F0004330B54FEA41044FEA430594EA91
:10580000050F08BF90EA020F1FBF54EA000C55EACB
:10581000020C7FEA645C7FEA655C00F0E2804FEA9C
:105820005454D4EB5555B8BF6D420CDD2C4480EA7E
:10583000020281EA030382EA000083EA010180EAAE
:10584000020281EA0303362D88BF30BD11F0004FFC
:105850004FEA01314FF4801C4CEA113102D0404232
:1058600061EB410113F0004F4FEA03334CEA13336D
:1058700002D0524263EB430394EA050F00F0A78085
:10588000A4F10104D5F1200E0DDB02FA0EFC22FA80
:1058900005F2801841F1000103FA0EF2801843FA74
:1058A00005F359410EE0A5F120050EF1200E012A65
:1058B00003FA0EFC28BF4CF0020C43FA05F3C018A3
:1058C00051EBE37101F0004507D54FF0000EDCF11C
:1058D000000C7EEB00006EEB0101B1F5801F1BD3C5
:1058E000B1F5001F0CD349085FEA30004FEA3C0CC9
:1058F00004F101044FEA445212F5800F80F09A80BF
:10590000BCF1004F08BF5FEA500C50F1000041EBC2
:10591000045141EA050130BD5FEA4C0C404141EBC6
:10592000010111F4801FA4F10104E9D191F0000FED
:1059300004BF01460020B1FA81F308BF2033A3F170
:105940000B03B3F120020CDA0C3208DD02F1140C67
:10595000C2F10C0201FA0CF021FA02F10CE002F1A2
:105960001402D8BFC2F1200C01FA02F120FA0CFC9B
:10597000DCBF41EA0C019040E41AA2BF01EB0451E4
:10598000294330BD6FEA04041F3C1CDA0C340EDCE2
:1059900004F11404C4F1200220FA04F001FA02F325
:1059A00040EA030021FA04F345EA030130BDC4F1E3
:1059B0000C04C4F1200220FA02F001FA04F340EAD8
:1059C0000300294630BD21FA04F0294630BD94F089
:1059D000000F83F4801306BF81F480110134013D70
:1059E0004EE77FEA645C18BF7FEA655C29D094EAE1
:1059F000050F08BF90EA020F05D054EA000C04BF5F
:105A00001946104630BD91EA030F1EBF0021002049
:105A100030BD5FEA545C05D14000494128BF41F0E8
:105A2000004130BD14F580043CBF01F5801130BD4C
:105A300001F0004545F0FE4141F470014FF00000D7
:105A400030BD7FEA645C1ABF194610467FEA655C88
:105A50001CBF0B46024650EA013406BF52EA03352A
:105A600091EA030F41F4002130BD00BF90F0000F18
:105A700004BF0021704730B54FF4806404F1320454
:105A80004FF000054FF0000150E700BF90F0000F0D
:105A900004BF0021704730B54FF4806404F1320434
:105AA00010F0004548BF40424FF000013EE700BF04
:105AB00042004FEAE2014FEA31014FEA02701FBF94
:105AC00012F07F4393F07F4F81F06051704732F0C6
:105AD0007F4208BF704793F07F4F04BF41F400211D
