:1000000000800020C1010000890400008904000074
:1000100089040000890400008904000087040000AE
:100020008704000087040000870400008D0400009E
:100030008D040000870400008D040000D904000036
:100040008D0400008D0400008D0400008D0400006C
:100050008D0400008D0400008D0400008D0400005C
:100060008D0400008D0400008D0400008D0400004C
:100070008D0400008D0400008D0400008D0400003C
:100080008D040000870400008D0400008D04000032
:100090008D0400008D0400008D0400008704000022
:1000A0008D0400008D0400008D0400008D0400000C
:1000B000870400008D0400008D0400008D04000002
:1000C0008D0400008D0400008D0400008D040000EC
:1000D0008D040000870400008704000087040000EE
:1000E00087040000870400008704000087040000E4
:1000F0008D0400008D0400008D0400008D040000BC
:100100008D0400008D0400008D04000087040000B1
:1001100087040000870400008704000087040000B3
:10012000870400008D0400008D0400008D04000091
:100130008D0400008D0400008D0400008D0400007B
:100140008D0400008D0400008D0400008D0400006B
:100150008D0400008D0400008D0400008D0400005B
:100160008D0400008D0400008D0400008704000051
:100170008704000087040000870400008704000053
:10018000870400008D040000870400008D04000037
:100190008D0400008D040000870400008D04000021
:1001A0008D0400008D0400008D0400008D0400000B
:1001B00087040000870400008D040000870400000D
:1001C00008B500F065F9304B30499A78120742BF04
:1001D0009A7842F008029A702D4B2A221A7041F246
:1001E00038028B5843F478538B502A4B0A221A70EA
:1001F000A3F5805324225A70A0221A709A7990078E
:10020000FCD59A79D106FCD4234B19469A7902F091
:100210000C02082AFAD105221A7143225A718B79ED
:100220009A06FCD51C4A93795B06FCD5174B41F224
:1002300044014FF08170585041F248010520585058
:100240002021117014498A7902F00C020C2AFAD18B
:1002500041F2040211499950114A124B12498B4242
:100260000AD3124B124A002193420AD300F012F92A
:1002700062B600F0CDF8FEE752F8040F43F8040B25
:10028000EDE743F8041BEFE700D00740007004409F
:1002900000E007400050064000400640C010050046
:1002A000140600000080FF1F0080FF1F0080FF1F5A
:1002B0000480FF1FFFFFFFFFFFFFFFFFFFFFFFFFA8
:1002C000FFFFFFFFFFFFFFFFFFFFFFFFFFFFFFFF3E
:1002D000FFFFFFFFFFFFFFFFFFFFFFFFFFFFFFFF2E
:1002E000FFFFFFFFFFFFFFFFFFFFFFFFFFFFFFFF1E
:1002F000FFFFFFFFFFFFFFFFFFFFFFFFFFFFFFFF0E
:10030000FFFFFFFFFFFFFFFFFFFFFFFFFFFFFFFFFD
:10031000FFFFFFFFFFFFFFFFFFFFFFFFFFFFFFFFED
:10032000FFFFFFFFFFFFFFFFFFFFFFFFFFFFFFFFDD
:10033000FFFFFFFFFFFFFFFFFFFFFFFFFFFFFFFFCD
:10034000FFFFFFFFFFFFFFFFFFFFFFFFFFFFFFFFBD
:10035000FFFFFFFFFFFFFFFFFFFFFFFFFFFFFFFFAD
:10036000FFFFFFFFFFFFFFFFFFFFFFFFFFFFFFFF9D
:10037000FFFFFFFFFFFFFFFFFFFFFFFFFFFFFFFF8D
:10038000FFFFFFFFFFFFFFFFFFFFFFFFFFFFFFFF7D
:10039000FFFFFFFFFFFFFFFFFFFFFFFFFFFFFFFF6D
:1003A000FFFFFFFFFFFFFFFFFFFFFFFFFFFFFFFF5D
:1003B000FFFFFFFFFFFFFFFFFFFFFFFFFFFFFFFF4D
:1003C000FFFFFFFFFFFFFFFFFFFFFFFFFFFFFFFF3D
:1003D000FFFFFFFFFFFFFFFFFFFFFFFFFFFFFFFF2D
:1003E000FFFFFFFFFFFFFFFFFFFFFFFFFFFFFFFF1D
:1003F000FFFFFFFFFFFFFFFFFFFFFFFFFFFFFFFF0D
:10040000FFFFFFFFFFFFFFFFFFFFFFFFFEFFFFFFFD
:1004100008B50F4B0F48104C4FF440721A644FF45C
:10042000E1315A6400F080F80C490A4800F0C2F843
:100430000B4B01254FF4A27265611A6065600120C3
:1004400000F010F8A560022000F00CF8F6E700BFFD
:1004500000A0044000A00640C0F00F40F8050000D6
:1004600000C0044038B5044600F01EF804190546E3
:1004700003D300F019F8A842FBD800F015F8A04209
:10048000FBD338BDFEE77047FFF7FCBFFFF7FBBFAC
:1004900000F0A4B8024B034A5A6007221A60704762
:1004A00010E000E000DD6D00084B09481A68094BB8
:1004B0009B6823F07F43C3F5DB0303F5BA43B3FB2B
:1004C000F0F3642000FB0230704700BF0080FF1F84
:1004D0004019010010E000E0024A13680133136084
:1004E000704700BF0080FF1F0E4B984210D003F5ED
:1004F000805398420ED003F5805398420CD003F5F8
:10050000805398420AD003F5FA23984208D0FEE7B8
:100510000020704701207047022070470320704779
:100520000420704700A0064010B50246FFF7DCFF2C
:10053000042812D8DFE800F0030A252C33001A4CF7
:1005400041F23400235843F4806305E0164C41F235
:100550003400235843F400632350002393700801B0
:10056000124B93FBF0F3C3F30420DBB21070537013
:100570000F4B93FBF1F1082301F01F019172D3702F
:1005800010BD094C41F23400235843F48053E3E793
:10059000054C41F23400235843F40053DCE7024C8D
:1005A00041F22800CEE700BF0070044000A24A04D8
:1005B00000449508013911F8013F53B903791A062F
:1005C000FCD50D23C37103791B06FCD50A23C37127
:1005D000704702791206FCD5C371ECE7054B4CF26B
:1005E0002052DA814DF62812DA8100BF00BF1022B6
:1005F0001A807047002005400D0A62697462616EBE
:0E060000675F7371756172655F776176650083
:04061000F8B500BF7A
:04061400F8B500BF76
:00000001FF
